{
  "_format": "hh-sol-artifact-1",
  "contractName": "Factory",
  "sourceName": "contracts/Factory.sol",
  "abi": [
    {
      "constant": false,
      "inputs": [
        {
          "internalType": "uint256",
          "name": "index",
          "type": "uint256"
        }
      ],
      "name": "sellerSignContract",
      "outputs": [],
      "payable": true,
      "stateMutability": "payable",
      "type": "function"
    },
    {
      "constant": true,
      "inputs": [
        {
          "internalType": "address",
          "name": "indexadd",
          "type": "address"
        }
      ],
      "name": "getPropFromLawyer",
      "outputs": [
        {
          "internalType": "uint256[]",
          "name": "",
          "type": "uint256[]"
        }
      ],
      "payable": false,
      "stateMutability": "view",
      "type": "function"
    },
    {
      "constant": true,
      "inputs": [
        {
          "internalType": "uint256",
          "name": "index",
          "type": "uint256"
        }
      ],
      "name": "getInstancePrice",
      "outputs": [
        {
          "internalType": "uint256",
          "name": "",
          "type": "uint256"
        }
      ],
      "payable": false,
      "stateMutability": "view",
      "type": "function"
    },
    {
      "constant": true,
      "inputs": [
        {
          "internalType": "uint256",
          "name": "index",
          "type": "uint256"
        }
      ],
      "name": "getInstanceProptype",
      "outputs": [
        {
          "internalType": "uint256",
          "name": "",
          "type": "uint256"
        }
      ],
      "payable": false,
      "stateMutability": "view",
      "type": "function"
    },
    {
      "constant": true,
      "inputs": [
        {
          "internalType": "uint256",
          "name": "index",
          "type": "uint256"
        }
      ],
      "name": "getContractBalance",
      "outputs": [
        {
          "internalType": "uint256",
          "name": "",
          "type": "uint256"
        }
      ],
      "payable": false,
      "stateMutability": "view",
      "type": "function"
    },
    {
      "constant": true,
      "inputs": [
        {
          "internalType": "uint256",
          "name": "index",
          "type": "uint256"
        }
      ],
      "name": "getwalletbalance",
      "outputs": [
        {
          "internalType": "uint256",
          "name": "",
          "type": "uint256"
        }
      ],
      "payable": false,
      "stateMutability": "view",
      "type": "function"
    },
    {
      "constant": true,
      "inputs": [
        {
          "internalType": "uint256",
          "name": "state",
          "type": "uint256"
        }
      ],
      "name": "getPropFromInvState",
      "outputs": [
        {
          "internalType": "uint256[]",
          "name": "",
          "type": "uint256[]"
        }
      ],
      "payable": false,
      "stateMutability": "view",
      "type": "function"
    },
    {
      "constant": true,
      "inputs": [
        {
          "internalType": "address",
          "name": "indexadd",
          "type": "address"
        }
      ],
      "name": "getPropFromBuyer",
      "outputs": [
        {
          "internalType": "uint256[]",
          "name": "",
          "type": "uint256[]"
        }
      ],
      "payable": false,
      "stateMutability": "view",
      "type": "function"
    },
    {
      "constant": true,
      "inputs": [
        {
          "internalType": "uint256",
          "name": "state",
          "type": "uint256"
        }
      ],
      "name": "getPropFromState",
      "outputs": [
        {
          "internalType": "uint256[]",
          "name": "",
          "type": "uint256[]"
        }
      ],
      "payable": false,
      "stateMutability": "view",
      "type": "function"
    },
    {
      "constant": true,
      "inputs": [
        {
          "internalType": "uint256",
          "name": "index",
          "type": "uint256"
        }
      ],
      "name": "getInstanceBuyerAddress",
      "outputs": [
        {
          "internalType": "address",
          "name": "",
          "type": "address"
        }
      ],
      "payable": false,
      "stateMutability": "view",
      "type": "function"
    },
    {
      "constant": true,
      "inputs": [
        {
          "internalType": "uint256",
          "name": "index",
          "type": "uint256"
        }
      ],
      "name": "getInstanceSellerAddress",
      "outputs": [
        {
          "internalType": "address",
          "name": "",
          "type": "address"
        }
      ],
      "payable": false,
      "stateMutability": "view",
      "type": "function"
    },
    {
      "constant": true,
      "inputs": [
        {
          "internalType": "uint256",
          "name": "index",
          "type": "uint256"
        }
      ],
      "name": "getInstanceState",
      "outputs": [
        {
          "internalType": "uint256",
          "name": "",
          "type": "uint256"
        }
      ],
      "payable": false,
      "stateMutability": "view",
      "type": "function"
    },
    {
      "constant": true,
      "inputs": [
        {
          "internalType": "address",
          "name": "indexadd",
          "type": "address"
        }
      ],
      "name": "getPropFromSeller",
      "outputs": [
        {
          "internalType": "uint256[]",
          "name": "",
          "type": "uint256[]"
        }
      ],
      "payable": false,
      "stateMutability": "view",
      "type": "function"
    },
    {
      "constant": true,
      "inputs": [
        {
          "internalType": "uint256",
          "name": "index",
          "type": "uint256"
        }
      ],
      "name": "getInstanceZIP",
      "outputs": [
        {
          "internalType": "string",
          "name": "",
          "type": "string"
        }
      ],
      "payable": false,
      "stateMutability": "view",
      "type": "function"
    },
    {
      "constant": true,
      "inputs": [
        {
          "internalType": "uint256",
          "name": "index",
          "type": "uint256"
        }
      ],
      "name": "getOTPDeadline",
      "outputs": [
        {
          "internalType": "uint256",
          "name": "",
          "type": "uint256"
        }
      ],
      "payable": false,
      "stateMutability": "view",
      "type": "function"
    },
    {
      "constant": false,
      "inputs": [
        {
          "internalType": "uint256",
          "name": "index",
          "type": "uint256"
        }
      ],
      "name": "buyerFinalizeTransaction",
      "outputs": [],
      "payable": true,
      "stateMutability": "payable",
      "type": "function"
    },
    {
      "constant": false,
      "inputs": [
        {
          "internalType": "uint256",
          "name": "index",
          "type": "uint256"
        }
      ],
      "name": "anyWithdrawPostFinalDeadline",
      "outputs": [],
      "payable": true,
      "stateMutability": "payable",
      "type": "function"
    },
    {
      "constant": false,
      "inputs": [
        {
          "internalType": "uint256",
          "name": "index",
          "type": "uint256"
        }
      ],
      "name": "SellerWithdrawPostExpiry",
      "outputs": [],
      "payable": true,
      "stateMutability": "payable",
      "type": "function"
    },
    {
      "constant": true,
      "inputs": [
        {
          "internalType": "uint256",
          "name": "index",
          "type": "uint256"
        }
      ],
      "name": "getLastOpsTime",
      "outputs": [
        {
          "internalType": "uint256",
          "name": "",
          "type": "uint256"
        }
      ],
      "payable": false,
      "stateMutability": "view",
      "type": "function"
    },
    {
      "constant": true,
      "inputs": [
        {
          "internalType": "uint256",
          "name": "index",
          "type": "uint256"
        }
      ],
      "name": "getInstanceAgentFee",
      "outputs": [
        {
          "internalType": "uint256",
          "name": "",
          "type": "uint256"
        }
      ],
      "payable": false,
      "stateMutability": "view",
      "type": "function"
    },
    {
      "constant": false,
      "inputs": [
        {
          "internalType": "uint256",
          "name": "index",
          "type": "uint256"
        },
        {
          "internalType": "string",
          "name": "blkoffer",
          "type": "string"
        },
        {
          "internalType": "uint256",
          "name": "offerpx",
          "type": "uint256"
        },
        {
          "internalType": "address",
          "name": "Lawyer",
          "type": "address"
        }
      ],
      "name": "buyerShowsInterest",
      "outputs": [],
      "payable": true,
      "stateMutability": "payable",
      "type": "function"
    },
    {
      "constant": true,
      "inputs": [
        {
          "internalType": "uint256",
          "name": "proptype",
          "type": "uint256"
        }
      ],
      "name": "getPropFromPropType",
      "outputs": [
        {
          "internalType": "uint256[]",
          "name": "",
          "type": "uint256[]"
        }
      ],
      "payable": false,
      "stateMutability": "view",
      "type": "function"
    },
    {
      "constant": true,
      "inputs": [
        {
          "internalType": "uint256",
          "name": "index",
          "type": "uint256"
        }
      ],
      "name": "getInstanceBlockentry",
      "outputs": [
        {
          "internalType": "string",
          "name": "",
          "type": "string"
        }
      ],
      "payable": false,
      "stateMutability": "view",
      "type": "function"
    },
    {
      "constant": false,
      "inputs": [
        {
          "internalType": "uint256",
          "name": "index",
          "type": "uint256"
        }
      ],
      "name": "buyerSignContractAndPayDeposit",
      "outputs": [],
      "payable": true,
      "stateMutability": "payable",
      "type": "function"
    },
    {
      "constant": false,
      "inputs": [
        {
          "internalType": "uint256",
          "name": "index",
          "type": "uint256"
        }
      ],
      "name": "SellerRejectBuyer",
      "outputs": [],
      "payable": true,
      "stateMutability": "payable",
      "type": "function"
    },
    {
      "constant": true,
      "inputs": [
        {
          "internalType": "uint256",
          "name": "index",
          "type": "uint256"
        }
      ],
      "name": "getFinalPaymentDeadline",
      "outputs": [
        {
          "internalType": "uint256",
          "name": "",
          "type": "uint256"
        }
      ],
      "payable": false,
      "stateMutability": "view",
      "type": "function"
    },
    {
      "constant": true,
      "inputs": [
        {
          "internalType": "uint256",
          "name": "index",
          "type": "uint256"
        }
      ],
      "name": "getInstanceAcco",
      "outputs": [
        {
          "internalType": "uint256",
          "name": "",
          "type": "uint256"
        }
      ],
      "payable": false,
      "stateMutability": "view",
      "type": "function"
    },
    {
      "constant": false,
      "inputs": [
        {
          "internalType": "string",
          "name": "_address",
          "type": "string"
        },
        {
          "internalType": "string",
          "name": "_zip",
          "type": "string"
        },
        {
          "internalType": "uint256",
          "name": "_realtorFee",
          "type": "uint256"
        },
        {
          "internalType": "uint256",
          "name": "_price",
          "type": "uint256"
        },
        {
          "internalType": "uint256",
          "name": "_proptype",
          "type": "uint256"
        },
        {
          "internalType": "uint256",
          "name": "_acco",
          "type": "uint256"
        },
        {
          "internalType": "uint256",
          "name": "_proparea",
          "type": "uint256"
        },
        {
          "internalType": "string",
          "name": "_blockentry",
          "type": "string"
        },
        {
          "internalType": "address payable",
          "name": "_Agent",
          "type": "address"
        }
      ],
      "name": "create",
      "outputs": [
        {
          "internalType": "contract HomeTransaction",
          "name": "homeTransaction",
          "type": "address"
        }
      ],
      "payable": false,
      "stateMutability": "nonpayable",
      "type": "function"
    },
    {
      "constant": true,
      "inputs": [],
      "name": "getInstanceCount",
      "outputs": [
        {
          "internalType": "uint256",
          "name": "count",
          "type": "uint256"
        }
      ],
      "payable": false,
      "stateMutability": "view",
      "type": "function"
    },
    {
      "constant": true,
      "inputs": [
        {
          "internalType": "uint256",
          "name": "index",
          "type": "uint256"
        }
      ],
      "name": "getContractAddress",
      "outputs": [
        {
          "internalType": "address",
          "name": "",
          "type": "address"
        }
      ],
      "payable": false,
      "stateMutability": "view",
      "type": "function"
    },
    {
      "constant": true,
      "inputs": [
        {
          "internalType": "uint256",
          "name": "index",
          "type": "uint256"
        }
      ],
      "name": "getInstanceBlockoffer",
      "outputs": [
        {
          "internalType": "string",
          "name": "",
          "type": "string"
        }
      ],
      "payable": false,
      "stateMutability": "view",
      "type": "function"
    },
    {
      "constant": true,
      "inputs": [
        {
          "internalType": "uint256",
          "name": "index",
          "type": "uint256"
        }
      ],
      "name": "getContractAllowance",
      "outputs": [
        {
          "internalType": "uint256",
          "name": "",
          "type": "uint256"
        }
      ],
      "payable": false,
      "stateMutability": "view",
      "type": "function"
    },
    {
      "constant": false,
      "inputs": [
        {
          "internalType": "uint256",
          "name": "index",
          "type": "uint256"
        }
      ],
      "name": "anyWithdrawFromTransaction",
      "outputs": [],
      "payable": true,
      "stateMutability": "payable",
      "type": "function"
    },
    {
      "constant": true,
      "inputs": [
        {
          "internalType": "uint256",
          "name": "index",
          "type": "uint256"
        }
      ],
      "name": "getInstanceAgentAddress",
      "outputs": [
        {
          "internalType": "address",
          "name": "",
          "type": "address"
        }
      ],
      "payable": false,
      "stateMutability": "view",
      "type": "function"
    },
    {
      "constant": false,
      "inputs": [
        {
          "internalType": "uint256",
          "name": "index",
          "type": "uint256"
        }
      ],
      "name": "buyerPaysOTPAmount",
      "outputs": [],
      "payable": true,
      "stateMutability": "payable",
      "type": "function"
    },
    {
      "constant": true,
      "inputs": [],
      "name": "getInstances",
      "outputs": [
        {
          "internalType": "contract HomeTransaction[]",
          "name": "instances",
          "type": "address[]"
        }
      ],
      "payable": false,
      "stateMutability": "view",
      "type": "function"
    },
    {
      "constant": true,
      "inputs": [
        {
          "internalType": "uint256",
          "name": "index",
          "type": "uint256"
        }
      ],
      "name": "getInstancePropArea",
      "outputs": [
        {
          "internalType": "uint256",
          "name": "",
          "type": "uint256"
        }
      ],
      "payable": false,
      "stateMutability": "view",
      "type": "function"
    },
    {
      "constant": true,
      "inputs": [
        {
          "internalType": "uint256",
          "name": "index",
          "type": "uint256"
        }
      ],
      "name": "getInstanceAddress",
      "outputs": [
        {
          "internalType": "string",
          "name": "",
          "type": "string"
        }
      ],
      "payable": false,
      "stateMutability": "view",
      "type": "function"
    },
    {
      "constant": true,
      "inputs": [
        {
          "internalType": "uint256",
          "name": "index",
          "type": "uint256"
        }
      ],
      "name": "getInstance",
      "outputs": [
        {
          "internalType": "contract HomeTransaction",
          "name": "instance",
          "type": "address"
        }
      ],
      "payable": false,
      "stateMutability": "view",
      "type": "function"
    },
    {
      "constant": false,
      "inputs": [
        {
          "internalType": "uint256",
          "name": "index",
          "type": "uint256"
        },
        {
          "internalType": "bool",
          "name": "accept",
          "type": "bool"
        }
      ],
      "name": "AgentReviewedClosingConditions",
      "outputs": [],
      "payable": true,
      "stateMutability": "payable",
      "type": "function"
    },
    {
      "inputs": [
        {
          "internalType": "string",
          "name": "_greeting",
          "type": "string"
        }
      ],
      "payable": false,
      "stateMutability": "nonpayable",
      "type": "constructor"
    },
    {
      "anonymous": false,
      "inputs": [
        {
          "indexed": true,
          "internalType": "address",
          "name": "_from",
          "type": "address"
        },
        {
          "indexed": false,
          "internalType": "uint256",
          "name": "_index",
          "type": "uint256"
        },
        {
          "indexed": false,
          "internalType": "uint256",
          "name": "_value",
          "type": "uint256"
        }
      ],
      "name": "ShowIterest",
      "type": "event"
    }
  ],
  "bytecode": "0x60806040523480156200001157600080fd5b506040516200472e3803806200472e833981810160405260208110156200003757600080fd5b81019080805160405193929190846401000000008211156200005857600080fd5b9083019060208201858111156200006e57600080fd5b82516401000000008111828201881017156200008957600080fd5b82525081516020918201929091019080838360005b83811015620000b85781810151838201526020016200009e565b50505050905090810190601f168015620000e65780820380516001836020036101000a031916815260200191505b506040525050505061463080620000fe6000396000f3fe608060405260043610620002715760003560e01c80635fce654b116200014b578063bbe2bd2211620000bb578063d35fdd791162000079578063d35fdd791462000ba1578063dbff9c8a1462000bb9578063e9bdc18a1462000be7578063ebd348de1462000c15578063f828fa951462000c435762000271565b8063bbe2bd221462000ad7578063c6389f6b1462000b05578063c6f56def1462000b33578063c903b45c1462000b53578063c9e3bfff1462000b815762000271565b8063a45b694b1162000109578063a45b694b1462000846578063a5f7597f1462000874578063a81be58d14620008a2578063ae34325c1462000a91578063aefa7d981462000aa95762000271565b80635fce654b14620006eb5780637e6bc31d14620007aa57806384d596da14620007d85780639938a3c714620008065780639de665bb14620008265762000271565b80631c22cc4a11620001e75780634e9dcb5811620001a55780634e9dcb58146200062f57806352d21087146200064f57806354d56887146200066f578063595a45fe146200068f5780635d32927814620006bd5762000271565b80631c22cc4a14620004c857806334be341914620004f65780633df25f2414620005245780633ed54a79146200055b5780634a31d30614620006015762000271565b8063086ccea31162000235578063086ccea314620003bd5780630954225714620003eb5780630a180b8d146200041957806318299b9114620004505780631a952acf146200047e5762000271565b8062ff4b3d14620002765780630347784f1462000298578063035211c61462000321578063052df04c146200036157806305d63070146200038f575b600080fd5b62000296600480360360208110156200028e57600080fd5b503562000c6b565b005b348015620002a557600080fd5b50620002cf60048036036020811015620002be57600080fd5b50356001600160a01b031662000d55565b60408051602080825283518183015283519192839290830191858101910280838360005b838110156200030d578181015183820152602001620002f3565b505050509050019250505060405180910390f35b3480156200032e57600080fd5b506200034f600480360360208110156200034757600080fd5b503562000dea565b60408051918252519081900360200190f35b3480156200036e57600080fd5b506200034f600480360360208110156200038757600080fd5b503562000ec2565b3480156200039c57600080fd5b506200034f60048036036020811015620003b557600080fd5b503562000f65565b348015620003ca57600080fd5b506200034f60048036036020811015620003e357600080fd5b503562001051565b348015620003f857600080fd5b50620002cf600480360360208110156200041157600080fd5b503562001126565b3480156200042657600080fd5b50620002cf600480360360208110156200043f57600080fd5b50356001600160a01b0316620011a1565b3480156200045d57600080fd5b50620002cf600480360360208110156200047657600080fd5b50356200122f565b3480156200048b57600080fd5b50620004ac60048036036020811015620004a457600080fd5b5035620012ab565b604080516001600160a01b039092168252519081900360200190f35b348015620004d557600080fd5b50620004ac60048036036020811015620004ee57600080fd5b50356200134e565b3480156200050357600080fd5b506200034f600480360360208110156200051c57600080fd5b5035620013f1565b3480156200053157600080fd5b50620002cf600480360360208110156200054a57600080fd5b50356001600160a01b0316620014d5565b3480156200056857600080fd5b5062000589600480360360208110156200058157600080fd5b503562001563565b6040805160208082528351818301528351919283929083019185019080838360005b83811015620005c5578181015183820152602001620005ab565b50505050905090810190601f168015620005f35780820380516001836020036101000a031916815260200191505b509250505060405180910390f35b3480156200060e57600080fd5b506200034f600480360360208110156200062757600080fd5b5035620016ff565b62000296600480360360208110156200064757600080fd5b5035620017a2565b62000296600480360360208110156200066757600080fd5b50356200188c565b62000296600480360360208110156200068757600080fd5b503562001976565b3480156200069c57600080fd5b506200034f60048036036020811015620006b557600080fd5b503562001a16565b348015620006ca57600080fd5b506200034f60048036036020811015620006e357600080fd5b503562001ab9565b62000296600480360360808110156200070357600080fd5b81359190810190604081016020820135600160201b8111156200072557600080fd5b8201836020820111156200073857600080fd5b803590602001918460018302840111600160201b831117156200075a57600080fd5b91908080601f01602080910402602001604051908101604052809392919081815260200183838082843760009201919091525092955050823593505050602001356001600160a01b031662001b5c565b348015620007b757600080fd5b50620002cf60048036036020811015620007d057600080fd5b503562001cde565b348015620007e557600080fd5b506200058960048036036020811015620007fe57600080fd5b503562001d5a565b62000296600480360360208110156200081e57600080fd5b503562001dfd565b62000296600480360360208110156200083e57600080fd5b503562001ee7565b3480156200085357600080fd5b506200034f600480360360208110156200086c57600080fd5b503562001f8b565b3480156200088157600080fd5b506200034f600480360360208110156200089a57600080fd5b50356200202e565b348015620008af57600080fd5b50620004ac6004803603610120811015620008c957600080fd5b810190602081018135600160201b811115620008e457600080fd5b820183602082011115620008f757600080fd5b803590602001918460018302840111600160201b831117156200091957600080fd5b91908080601f0160208091040260200160405190810160405280939291908181526020018383808284376000920191909152509295949360208101935035915050600160201b8111156200096c57600080fd5b8201836020820111156200097f57600080fd5b803590602001918460018302840111600160201b83111715620009a157600080fd5b91908080601f016020809104026020016040519081016040528093929190818152602001838380828437600092019190915250929584359560208601359560408101359550606081013594506080810135935060c081019060a00135600160201b81111562000a0f57600080fd5b82018360208201111562000a2257600080fd5b803590602001918460018302840111600160201b8311171562000a4457600080fd5b91908080601f016020809104026020016040519081016040528093929190818152602001838380828437600092019190915250929550505090356001600160a01b03169150620020d19050565b34801562000a9e57600080fd5b506200034f62002312565b34801562000ab657600080fd5b50620004ac6004803603602081101562000acf57600080fd5b503562002318565b34801562000ae457600080fd5b50620005896004803603602081101562000afd57600080fd5b503562002376565b34801562000b1257600080fd5b506200034f6004803603602081101562000b2b57600080fd5b503562002419565b620002966004803603602081101562000b4b57600080fd5b50356200251f565b34801562000b6057600080fd5b50620004ac6004803603602081101562000b7957600080fd5b5035620025c0565b620002966004803603602081101562000b9957600080fd5b503562002663565b34801562000bae57600080fd5b50620002cf6200274d565b34801562000bc657600080fd5b506200034f6004803603602081101562000bdf57600080fd5b5035620027b1565b34801562000bf457600080fd5b50620005896004803603602081101562000c0d57600080fd5b503562002854565b34801562000c2257600080fd5b50620004ac6004803603602081101562000c3b57600080fd5b5035620028f7565b620002966004803603604081101562000c5b57600080fd5b5080359060200135151562002967565b600054811062000cb1576040805162461bcd60e51b81526020600482015260126024820152600080516020620045bc833981519152604482015290519081900360640190fd5b600080828154811062000cc057fe5b6000918252602082200154604080516318be633f60e01b815290516001600160a01b03909216935083926318be633f9260048084019382900301818387803b15801562000d0c57600080fd5b505af115801562000d21573d6000803e3d6000fd5b505060408051858152600260208201528151339450600080516020620045dc83398151915293509081900390910190a25050565b60005460408051828152602080840282010190915260609190829082801562000d88578160200160208202803883390190505b50905060005b8281101562000de257846001600160a01b031662000dac82620025c0565b6001600160a01b03161462000dd9578060010182828151811062000dcc57fe5b6020026020010181815250505b60010162000d8e565b509392505050565b60008054821062000e31576040805162461bcd60e51b81526020600482015260126024820152600080516020620045bc833981519152604482015290519081900360640190fd5b600080838154811062000e4057fe5b600091825260209182902001546040805163501ad8ff60e11b815290516001600160a01b039092169350839263a035b1fe92600480840193829003018186803b15801562000e8d57600080fd5b505afa15801562000ea2573d6000803e3d6000fd5b505050506040513d602081101562000eb957600080fd5b50519392505050565b60008054821062000f09576040805162461bcd60e51b81526020600482015260126024820152600080516020620045bc833981519152604482015290519081900360640190fd5b600080838154811062000f1857fe5b600091825260209182902001546040805163ccd3c77560e01b815290516001600160a01b039092169350839263ccd3c77592600480840193829003018186803b15801562000e8d57600080fd5b6000806000838154811062000f7657fe5b600091825260209182902001546040805163d21220a760e01b815290516001600160a01b039092169350839263d21220a792600480840193829003018186803b15801562000fc357600080fd5b505afa15801562000fd8573d6000803e3d6000fd5b505050506040513d602081101562000fef57600080fd5b50516001600160a01b03166370a082316200100a8562002318565b6040518263ffffffff1660e01b815260040180826001600160a01b03166001600160a01b0316815260200191505060206040518083038186803b15801562000e8d57600080fd5b600080600083815481106200106257fe5b600091825260209182902001546040805163d21220a760e01b815290516001600160a01b039092169350839263d21220a792600480840193829003018186803b158015620010af57600080fd5b505afa158015620010c4573d6000803e3d6000fd5b505050506040513d6020811015620010db57600080fd5b5051604080516370a0823160e01b815232600482015290516001600160a01b03909216916370a0823191602480820192602092909190829003018186803b15801562000e8d57600080fd5b60005460408051828152602080840282010190915260609190829082801562001159578160200160208202803883390190505b50905060005b8281101562000de257846200117482620013f1565b146200119857806001018282815181106200118b57fe5b6020026020010181815250505b6001016200115f565b600054604080518281526020808402820101909152606091908290828015620011d4578160200160208202803883390190505b50905060005b8281101562000de257846001600160a01b0316620011f882620012ab565b6001600160a01b031614156200122657806001018282815181106200121957fe5b6020026020010181815250505b600101620011da565b60005460408051828152602080840282010190915260609190829082801562001262578160200160208202803883390190505b50905060005b8281101562000de257846200127d82620013f1565b1415620012a257806001018282815181106200129557fe5b6020026020010181815250505b60010162001268565b600080548210620012f2576040805162461bcd60e51b81526020600482015260126024820152600080516020620045bc833981519152604482015290519081900360640190fd5b60008083815481106200130157fe5b60009182526020918290200154604080516338a86c5760e11b815290516001600160a01b0390921693508392637150d8ae92600480840193829003018186803b15801562000e8d57600080fd5b60008054821062001395576040805162461bcd60e51b81526020600482015260126024820152600080516020620045bc833981519152604482015290519081900360640190fd5b6000808381548110620013a457fe5b60009182526020918290200154604080516308551a5360e01b815290516001600160a01b03909216935083926308551a5392600480840193829003018186803b15801562000e8d57600080fd5b60008054821062001438576040805162461bcd60e51b81526020600482015260126024820152600080516020620045bc833981519152604482015290519081900360640190fd5b60008083815481106200144757fe5b600091825260209182902001546040805163042904f760e51b815290516001600160a01b03909216935083926385209ee092600480840193829003018186803b1580156200149457600080fd5b505afa158015620014a9573d6000803e3d6000fd5b505050506040513d6020811015620014c057600080fd5b50516007811115620014ce57fe5b9392505050565b60005460408051828152602080840282010190915260609190829082801562001508578160200160208202803883390190505b50905060005b8281101562000de257846001600160a01b03166200152c826200134e565b6001600160a01b031614156200155a57806001018282815181106200154d57fe5b6020026020010181815250505b6001016200150e565b6000546060908210620015ac576040805162461bcd60e51b81526020600482015260126024820152600080516020620045bc833981519152604482015290519081900360640190fd5b6000808381548110620015bb57fe5b6000918252602082200154604080516291905560e01b815290516001600160a01b03909216935083926291905592600480840193829003018186803b1580156200160457600080fd5b505afa15801562001619573d6000803e3d6000fd5b505050506040513d6000823e601f3d908101601f1916820160405260208110156200164357600080fd5b8101908080516040519392919084600160201b8211156200166357600080fd5b9083019060208201858111156200167957600080fd5b8251600160201b8111828201881017156200169357600080fd5b82525081516020918201929091019080838360005b83811015620016c2578181015183820152602001620016a8565b50505050905090810190601f168015620016f05780820380516001836020036101000a031916815260200191505b50604052505050915050919050565b60008054821062001746576040805162461bcd60e51b81526020600482015260126024820152600080516020620045bc833981519152604482015290519081900360640190fd5b60008083815481106200175557fe5b60009182526020918290200154604080516316498c1560e11b815290516001600160a01b0390921693508392632c93182a92600480840193829003018186803b15801562000e8d57600080fd5b6000548110620017e8576040805162461bcd60e51b81526020600482015260126024820152600080516020620045bc833981519152604482015290519081900360640190fd5b6000808281548110620017f757fe5b600091825260208220015460408051632323f8f560e01b815290516001600160a01b0390921693508392632323f8f59260048084019382900301818387803b1580156200184357600080fd5b505af115801562001858573d6000803e3d6000fd5b505060408051858152600660208201528151339450600080516020620045dc83398151915293509081900390910190a25050565b6000548110620018d2576040805162461bcd60e51b81526020600482015260126024820152600080516020620045bc833981519152604482015290519081900360640190fd5b6000808281548110620018e157fe5b600091825260208220015460408051630d437d9160e31b815290516001600160a01b0390921693508392636a1bec889260048084019382900301818387803b1580156200192d57600080fd5b505af115801562001942573d6000803e3d6000fd5b505060408051858152600060208201528151339450600080516020620045dc83398151915293509081900390910190a25050565b6000548110620019bc576040805162461bcd60e51b81526020600482015260126024820152600080516020620045bc833981519152604482015290519081900360640190fd5b6000808281548110620019cb57fe5b60009182526020822001546040805162cea2c360e71b815290516001600160a01b039092169350839263675161809260048084019382900301818387803b1580156200192d57600080fd5b60008054821062001a5d576040805162461bcd60e51b81526020600482015260126024820152600080516020620045bc833981519152604482015290519081900360640190fd5b600080838154811062001a6c57fe5b60009182526020918290200154604080516316d43a9760e01b815290516001600160a01b03909216935083926316d43a9792600480840193829003018186803b15801562000e8d57600080fd5b60008054821062001b00576040805162461bcd60e51b81526020600482015260126024820152600080516020620045bc833981519152604482015290519081900360640190fd5b600080838154811062001b0f57fe5b600091825260209182902001546040805163bd38347360e01b815290516001600160a01b039092169350839263bd38347392600480840193829003018186803b15801562000e8d57600080fd5b600054841062001ba2576040805162461bcd60e51b81526020600482015260126024820152600080516020620045bc833981519152604482015290519081900360640190fd5b600080858154811062001bb157fe5b6000918252602080832090910154604051631d18e57760e11b81523360048201818152604483018990526001600160a01b0388811660648501526080602485019081528b5160848601528b519190951697508796633a31caee9693958c958c958c9594929360a490920192908801918190849084905b8381101562001c4157818101518382015260200162001c27565b50505050905090810190601f16801562001c6f5780820380516001836020036101000a031916815260200191505b5095505050505050600060405180830381600087803b15801562001c9257600080fd5b505af115801562001ca7573d6000803e3d6000fd5b505060408051888152600160208201528151339450600080516020620045dc83398151915293509081900390910190a25050505050565b60005460408051828152602080840282010190915260609190829082801562001d11578160200160208202803883390190505b50905060005b8281101562000de2578462001d2c82620013f1565b141562001d51578060010182828151811062001d4457fe5b6020026020010181815250505b60010162001d17565b600054606090821062001da3576040805162461bcd60e51b81526020600482015260126024820152600080516020620045bc833981519152604482015290519081900360640190fd5b600080838154811062001db257fe5b600091825260208220015460408051633adf668d60e11b815290516001600160a01b03909216935083926375becd1a92600480840193829003018186803b1580156200160457600080fd5b600054811062001e43576040805162461bcd60e51b81526020600482015260126024820152600080516020620045bc833981519152604482015290519081900360640190fd5b600080828154811062001e5257fe5b600091825260208220015460408051634ed523e960e01b815290516001600160a01b0390921693508392634ed523e99260048084019382900301818387803b15801562001e9e57600080fd5b505af115801562001eb3573d6000803e3d6000fd5b505060408051858152600360208201528151339450600080516020620045dc83398151915293509081900390910190a25050565b600054811062001f2d576040805162461bcd60e51b81526020600482015260126024820152600080516020620045bc833981519152604482015290519081900360640190fd5b600080828154811062001f3c57fe5b6000918252602082200154604080516001620ab4bf60e41b0319815290516001600160a01b039092169350839263ff54b4109260048084019382900301818387803b1580156200192d57600080fd5b60008054821062001fd2576040805162461bcd60e51b81526020600482015260126024820152600080516020620045bc833981519152604482015290519081900360640190fd5b600080838154811062001fe157fe5b600091825260209182902001546040805163a0cb23cd60e01b815290516001600160a01b039092169350839263a0cb23cd92600480840193829003018186803b15801562000e8d57600080fd5b60008054821062002075576040805162461bcd60e51b81526020600482015260126024820152600080516020620045bc833981519152604482015290519081900360640190fd5b60008083815481106200208457fe5b600091825260209182902001546040805163057a92ed60e21b815290516001600160a01b03909216935083926315ea4bb492600480840193829003018186803b15801562000e8d57600080fd5b60008989898989898989893333604051620020ec9062002a5a565b8080602001806020018c81526020018b81526020018a815260200189815260200188815260200180602001876001600160a01b03166001600160a01b03168152602001866001600160a01b03166001600160a01b03168152602001856001600160a01b03166001600160a01b0316815260200184810384528f818151815260200191508051906020019080838360005b83811015620021965781810151838201526020016200217c565b50505050905090810190601f168015620021c45780820380516001836020036101000a031916815260200191505b5084810383528e818151815260200191508051906020019080838360005b83811015620021fc578181015183820152602001620021e2565b50505050905090810190601f1680156200222a5780820380516001836020036101000a031916815260200191505b5084810382528851815288516020918201918a019080838360005b838110156200225f57818101518382015260200162002245565b50505050905090810190601f1680156200228d5780820380516001836020036101000a031916815260200191505b509e505050505050505050505050505050604051809103906000f080158015620022bb573d6000803e3d6000fd5b50600080546001810182559080527f290decd9548b62a8d60345a988386fc84ba6bc95484008f6362f93160ef3e5630180546001600160a01b0319166001600160a01b0383161790559a9950505050505050505050565b60005490565b600080600083815481106200232957fe5b6000918252602091829020015460408051637da71c3560e11b815290516001600160a01b039092169350839263fb4e386a92600480840193829003018186803b15801562000e8d57600080fd5b6000546060908210620023bf576040805162461bcd60e51b81526020600482015260126024820152600080516020620045bc833981519152604482015290519081900360640190fd5b6000808381548110620023ce57fe5b60009182526020822001546040805163331f98fd60e01b815290516001600160a01b039092169350839263331f98fd92600480840193829003018186803b1580156200160457600080fd5b600080600083815481106200242a57fe5b600091825260209182902001546040805163d21220a760e01b815290516001600160a01b039092169350839263d21220a792600480840193829003018186803b1580156200247757600080fd5b505afa1580156200248c573d6000803e3d6000fd5b505050506040513d6020811015620024a357600080fd5b50516001600160a01b031663dd62ed3e32620024bf8662002318565b6040518363ffffffff1660e01b815260040180836001600160a01b03166001600160a01b03168152602001826001600160a01b03166001600160a01b031681526020019250505060206040518083038186803b15801562000e8d57600080fd5b600054811062002565576040805162461bcd60e51b81526020600482015260126024820152600080516020620045bc833981519152604482015290519081900360640190fd5b60008082815481106200257457fe5b60009182526020822001546040805163ba0892d960e01b815290516001600160a01b039092169350839263ba0892d99260048084019382900301818387803b1580156200192d57600080fd5b60008054821062002607576040805162461bcd60e51b81526020600482015260126024820152600080516020620045bc833981519152604482015290519081900360640190fd5b60008083815481106200261657fe5b6000918252602091829020015460408051639068ed1760e01b815290516001600160a01b0390921693508392639068ed1792600480840193829003018186803b15801562000e8d57600080fd5b6000548110620026a9576040805162461bcd60e51b81526020600482015260126024820152600080516020620045bc833981519152604482015290519081900360640190fd5b6000808281548110620026b857fe5b600091825260208220015460408051630d62b85360e41b815290516001600160a01b039092169350839263d62b85309260048084019382900301818387803b1580156200270457600080fd5b505af115801562002719573d6000803e3d6000fd5b505060408051858152600460208201528151339450600080516020620045dc83398151915293509081900390910190a25050565b60606000805480602002602001604051908101604052809291908181526020018280548015620027a757602002820191906000526020600020905b81546001600160a01b0316815260019091019060200180831162002788575b5050505050905090565b600080548210620027f8576040805162461bcd60e51b81526020600482015260126024820152600080516020620045bc833981519152604482015290519081900360640190fd5b60008083815481106200280757fe5b6000918252602091829020015460408051637f1c4edb60e11b815290516001600160a01b039092169350839263fe389db692600480840193829003018186803b15801562000e8d57600080fd5b60005460609082106200289d576040805162461bcd60e51b81526020600482015260126024820152600080516020620045bc833981519152604482015290519081900360640190fd5b6000808381548110620028ac57fe5b600091825260208220015460408051630f629ad360e41b815290516001600160a01b039092169350839263f629ad3092600480840193829003018186803b1580156200160457600080fd5b6000805482106200293e576040805162461bcd60e51b81526020600482015260126024820152600080516020620045bc833981519152604482015290519081900360640190fd5b600082815481106200294c57fe5b6000918252602090912001546001600160a01b031692915050565b6000548210620029ad576040805162461bcd60e51b81526020600482015260126024820152600080516020620045bc833981519152604482015290519081900360640190fd5b6000808381548110620029bc57fe5b60009182526020822001546040805163c7297f7b60e01b8152851515600482015290516001600160a01b039092169350839263c7297f7b9260248084019382900301818387803b15801562002a1057600080fd5b505af115801562002a25573d6000803e3d6000fd5b505060408051868152600560208201528151339450600080516020620045dc83398151915293509081900390910190a2505050565b611b538062002a698339019056fe60806040526015805460ff191690553480156200001b57600080fd5b5060405162001b5338038062001b5383398181016040526101608110156200004257600080fd5b81019080805160405193929190846401000000008211156200006357600080fd5b9083019060208201858111156200007957600080fd5b82516401000000008111828201881017156200009457600080fd5b82525081516020918201929091019080838360005b83811015620000c3578181015183820152602001620000a9565b50505050905090810190601f168015620000f15780820380516001836020036101000a031916815260200191505b50604052602001805160405193929190846401000000008211156200011557600080fd5b9083019060208201858111156200012b57600080fd5b82516401000000008111828201881017156200014657600080fd5b82525081516020918201929091019080838360005b83811015620001755781810151838201526020016200015b565b50505050905090810190601f168015620001a35780820380516001836020036101000a031916815260200191505b5060408181526020830151908301516060840151608085015160a086015160c09096018051949893979296919591949193929184640100000000821115620001ea57600080fd5b9083019060208201858111156200020057600080fd5b82516401000000008111828201881017156200021b57600080fd5b82525081516020918201929091019080838360005b838110156200024a57818101518382015260200162000230565b50505050905090810190601f168015620002785780820380516001836020036101000a031916815260200191505b50604090815260208201519082015160609092015190935090915088881015620002ee576040517f08c379a000000000000000000000000000000000000000000000000000000000815260040180806020018281038252602681526020018062001b2d6026913960400191505060405180910390fd5b60008054731484a6020a0f08400f6f56715016d2c80e26cdc16001600160a01b031991821617909155600180549091166001600160a01b038516179055600b8790556006805460ff19169055600e869055600f85905583516200035990600c906020870190620003dd565b50600280546001600160a01b0384166001600160a01b03199182161790915560038054909116331790558a51620003989060059060208e0190620003dd565b50600480546001600160a01b031916301790558951620003c09060079060208d0190620003dd565b505050600995909555505050600892909255506200048292505050565b828054600181600116156101000203166002900490600052602060002090601f016020900481019282601f106200042057805160ff191683800117855562000450565b8280016001018555821562000450579182015b828111156200045057825182559160200191906001019062000433565b506200045e92915062000462565b5090565b6200047f91905b808211156200045e576000815560010162000469565b90565b61169b80620004926000396000f3fe6080604052600436106101d65760003560e01c806385209ee011610102578063d0e30db011610095578063fb4e386a11610064578063fb4e386a14610560578063fe24e86e14610575578063fe389db61461058a578063ff54b4101461059f576101d6565b8063d0e30db014610519578063d21220a71461052e578063d62b853014610543578063f629ad301461054b576101d6565b8063ba0892d9116100d1578063ba0892d9146104bb578063bd383473146104c3578063c7297f7b146104d8578063ccd3c77514610504576101d6565b806385209ee0146104435780639068ed171461047c578063a035b1fe14610491578063a0cb23cd146104a6576101d6565b80632c93182a1161017a578063675161801161014957806367516180146104095780636a1bec88146104115780637150d8ae1461041957806375becd1a1461042e576101d6565b80632c93182a146102f9578063331f98fd1461030e5780633a31caee146103235780634ed523e9146103f4576101d6565b806315ea4bb4116101b657806315ea4bb4146102bd57806316d43a97146102d257806318be633f146102e75780632323f8f5146102f1576101d6565b806263fcf0146101db5780629190551461020257806308551a531461028c575b600080fd5b3480156101e757600080fd5b506101f06105a7565b60408051918252519081900360200190f35b34801561020e57600080fd5b506102176105ad565b6040805160208082528351818301528351919283929083019185019080838360005b83811015610251578181015183820152602001610239565b50505050905090810190601f16801561027e5780820380516001836020036101000a031916815260200191505b509250505060405180910390f35b34801561029857600080fd5b506102a161063b565b604080516001600160a01b039092168252519081900360200190f35b3480156102c957600080fd5b506101f061064a565b3480156102de57600080fd5b506101f0610650565b6102ef610656565b005b6102ef61072a565b34801561030557600080fd5b506101f0610a1a565b34801561031a57600080fd5b50610217610a20565b34801561032f57600080fd5b506102ef6004803603608081101561034657600080fd5b6001600160a01b03823516919081019060408101602082013564010000000081111561037157600080fd5b82018360208201111561038357600080fd5b803590602001918460018302840111640100000000831117156103a557600080fd5b91908080601f01602080910402602001604051908101604052809392919081815260200183838082843760009201919091525092955050823593505050602001356001600160a01b0316610a7b565b34801561040057600080fd5b506102ef610b39565b6102ef610d08565b6102ef610ed7565b34801561042557600080fd5b506102a1610f1e565b34801561043a57600080fd5b50610217610f2d565b34801561044f57600080fd5b50610458610f88565b6040518082600781111561046857fe5b60ff16815260200191505060405180910390f35b34801561048857600080fd5b506102a1610f91565b34801561049d57600080fd5b506101f0610fa0565b3480156104b257600080fd5b506101f0610fa6565b6102ef610fac565b3480156104cf57600080fd5b506101f0611015565b3480156104e457600080fd5b506102ef600480360360208110156104fb57600080fd5b5035151561101b565b34801561051057600080fd5b506101f06111de565b34801561052557600080fd5b506101f06111e4565b34801561053a57600080fd5b506102a16111ea565b6102ef6111f9565b34801561055757600080fd5b506102176113bc565b34801561056c57600080fd5b506102a1611417565b34801561058157600080fd5b506101f0611426565b34801561059657600080fd5b506101f061142c565b6102ef611432565b60115481565b6007805460408051602060026001851615610100026000190190941693909304601f810184900484028201840190925281815292918301828280156106335780601f1061060857610100808354040283529160200191610633565b820191906000526020600020905b81548152906001019060200180831161061657829003601f168201915b505050505081565b6002546001600160a01b031681565b600e5481565b60145481565b6002546001600160a01b031632146106b5576040805162461bcd60e51b815260206004820152601d60248201527f4f6e6c792073656c6c65722063616e207369676e20636f6e7472616374000000604482015290519081900360640190fd5b600160065460ff1660078111156106c857fe5b14610708576040805162461bcd60e51b81526020600482015260146024820152600080516020611647833981519152604482015290519081900360640190fd5b6006805460ff1916600217905542601455600a541561072857600a546009555b565b600560065460ff16600781111561073d57fe5b1461077d576040805162461bcd60e51b81526020600482015260146024820152600080516020611647833981519152604482015290519081900360640190fd5b600954606490605a02600054604080516370a0823160e01b8152326004820152905193909204926001600160a01b03909116916370a08231916024808301926020929190829003018186803b1580156107d557600080fd5b505afa1580156107e9573d6000803e3d6000fd5b505050506040513d60208110156107ff57600080fd5b50511015610854576040805162461bcd60e51b815260206004820152601860248201527f506c6561736520746f70207570207468652057616c6c65740000000000000000604482015290519081900360640190fd5b60008054600954604080516323b872dd60e01b81523260048201523060248201526064605a909302839004604482015290516001600160a01b03909316936323b872dd93828401936020939192918390030190829087803b1580156108b857600080fd5b505af11580156108cc573d6000803e3d6000fd5b505050506040513d60208110156108e257600080fd5b50506006805460ff191681179055600080546002546008546009546040805163a9059cbb60e01b81526001600160a01b03948516600482015292909103602483015251919092169263a9059cbb92604480820193602093909283900390910190829087803b15801561095357600080fd5b505af1158015610967573d6000803e3d6000fd5b505050506040513d602081101561097d57600080fd5b5050600080546001546008546040805163a9059cbb60e01b81526001600160a01b039384166004820152602481019290925251919092169263a9059cbb92604480820193602093909283900390910190829087803b1580156109de57600080fd5b505af11580156109f2573d6000803e3d6000fd5b505050506040513d6020811015610a0857600080fd5b50504260148190556012556000601355565b60135481565b600d805460408051602060026001851615610100026000190190941693909304601f810184900484028201840190925281815292918301828280156106335780601f1061060857610100808354040283529160200191610633565b600060065460ff166007811115610a8e57fe5b14610ace576040805162461bcd60e51b81526020600482015260146024820152600080516020611647833981519152604482015290519081900360640190fd5b6006805460ff19166001179055600380546001600160a01b0386166001600160a01b03199091161790558251610b0b90600d9060208601906114d3565b50600a91909155600180546001600160a01b0319166001600160a01b03909216919091179055505042601455565b600260065460ff166007811115610b4c57fe5b14610b8c576040805162461bcd60e51b81526020600482015260146024820152600080516020611647833981519152604482015290519081900360640190fd5b600054604080516370a0823160e01b815232600482015290516001600160a01b03909216916370a0823191602480820192602092909190829003018186803b158015610bd757600080fd5b505afa158015610beb573d6000803e3d6000fd5b505050506040513d6020811015610c0157600080fd5b5051600954606490041115610c475760405162461bcd60e51b81526004018080602001828103825260358152602001806116126035913960400191505060405180910390fd5b60008054600954604080516323b872dd60e01b8152326004820152306024820152606492839004604482015290516001600160a01b03909316936323b872dd93828401936020939192918390030190829087803b158015610ca757600080fd5b505af1158015610cbb573d6000803e3d6000fd5b505050506040513d6020811015610cd157600080fd5b50506006805460ff191660031790556009546064900460105560006011556249d40042908101601255621275008101601355601455565b4260135410610d485760405162461bcd60e51b81526004018080602001828103825260338152602001806115df6033913960400191505060405180910390fd5b60035b60065460ff166007811115610d5c57fe5b14610d9c576040805162461bcd60e51b81526020600482015260146024820152600080516020611647833981519152604482015290519081900360640190fd5b6006805460ff19169055600080546002546008546010546011546040805163a9059cbb60e01b81526001600160a01b0395861660048201529190920192909203602483015251919092169263a9059cbb92604480820193602093909283900390910190829087803b158015610e1057600080fd5b505af1158015610e24573d6000803e3d6000fd5b505050506040513d6020811015610e3a57600080fd5b5050600080546001546008546040805163a9059cbb60e01b81526001600160a01b039384166004820152602481019290925251919092169263a9059cbb92604480820193602093909283900390910190829087803b158015610e9b57600080fd5b505af1158015610eaf573d6000803e3d6000fd5b505050506040513d6020811015610ec557600080fd5b50504260128190556000601355601455565b4260125410610f175760405162461bcd60e51b815260040180806020018281038252603681526020018061156f6036913960400191505060405180910390fd5b6005610d4b565b6003546001600160a01b031681565b600c805460408051602060026001851615610100026000190190941693909304601f810184900484028201840190925281815292918301828280156106335780601f1061060857610100808354040283529160200191610633565b60065460ff1681565b6001546001600160a01b031681565b60095481565b60125481565b6006805460ff19169055600080546002546010546040805163a9059cbb60e01b81526001600160a01b039384166004820152602481019290925251919092169263a9059cbb92604480820193602093909283900390910190829087803b158015610e9b57600080fd5b60085481565b600460065460ff16600781111561102e57fe5b1461106e576040805162461bcd60e51b81526020600482015260146024820152600080516020611647833981519152604482015290519081900360640190fd5b8015611095576015805460ff199081166001179091556006805490911660051790556111d7565b6015805460ff19908116909155600680549091169055600080546003546008546010546011546040805163a9059cbb60e01b81526001600160a01b0395861660048201529190920192909203602483015251919092169263a9059cbb92604480820193602093909283900390910190829087803b15801561111557600080fd5b505af1158015611129573d6000803e3d6000fd5b505050506040513d602081101561113f57600080fd5b5050600080546001546008546040805163a9059cbb60e01b81526001600160a01b039384166004820152602481019290925251919092169263a9059cbb92604480820193602093909283900390910190829087803b1580156111a057600080fd5b505af11580156111b4573d6000803e3d6000fd5b505050506040513d60208110156111ca57600080fd5b5050600060128190556013555b5042601455565b600b5481565b60105481565b6000546001600160a01b031681565b600360065460ff16600781111561120c57fe5b1461124c576040805162461bcd60e51b81526020600482015260146024820152600080516020611647833981519152604482015290519081900360640190fd5b6009805460649102600054604080516370a0823160e01b8152326004820152905193909204926001600160a01b03909116916370a08231916024808301926020929190829003018186803b1580156112a357600080fd5b505afa1580156112b7573d6000803e3d6000fd5b505050506040513d60208110156112cd57600080fd5b5051101561130c5760405162461bcd60e51b815260040180806020018281038252603a8152602001806115a5603a913960400191505060405180910390fd5b6000805460098054604080516323b872dd60e01b81523260048201523060248201526064929093028290046044840152516001600160a01b03909316936323b872dd938383019360209391929083900390910190829087803b15801561137157600080fd5b505af1158015611385573d6000803e3d6000fd5b505050506040513d602081101561139b57600080fd5b50506006805460ff1916600417905560098054606491020460115542601455565b6005805460408051602060026001851615610100026000190190941693909304601f810184900484028201840190925281815292918301828280156106335780601f1061060857610100808354040283529160200191610633565b6004546001600160a01b031681565b600a5481565b600f5481565b600160065460ff16600781111561144557fe5b14611485576040805162461bcd60e51b81526020600482015260146024820152600080516020611647833981519152604482015290519081900360640190fd5b6006805460ff1916905542601255600060135560408051808201909152600880825267302530253025302560c01b60209092019182526114c791600d916114d3565b506000600a5542601455565b828054600181600116156101000203166002900490600052602060002090601f016020900481019282601f1061151457805160ff1916838001178555611541565b82800160010185558215611541579182015b82811115611541578251825591602001919060010190611526565b5061154d929150611551565b5090565b61156b91905b8082111561154d5760008155600101611557565b9056fe4f6e6c7920706f737420446561646c696e65207769746864726177206166746572207472616e73616374696f6e20646561646c696e654275796572206e6565647320746f206465706f736974206265747765656e2031302520616e64203130302520746f2065786563757465204f54504f6e6c792073656c6c65722063616e207769746864726177206166746572207472616e73616374696f6e20646561646c696e6557616c6c65742042616c616e6365206973206c6573736572207468616e207265717569726564206465706f73697420616d6f756e7457726f6e6720636f6e7472616374207374617465000000000000000000000000a265627a7a72315820ed2bf813a9d47fc778d5ed7f853e10a58f26e19c65c59cfdb5d4da91828377f764736f6c634300050b00325072696365206e6565647320746f206265206d6f7265207468616e204167656e742066656521696e646578206f7574206f662072616e67650000000000000000000000000000ef61bc92c100a9fcc99cfb6cba93c917763e0eaf8be97d45a2a4ebdbd58b8909a265627a7a7231582028ecb45d01fafca8b37de3199101346f38a5224a1a06876c86b422880a4c524164736f6c634300050b0032",
  "linkReferences": {},
  "deployedLinkReferences": {}
}