{
  "_format": "hh-sol-artifact-1",
  "contractName": "Factory",
  "sourceName": "contracts/Factory.sol",
  "abi": [
    {
      "constant": false,
      "inputs": [
        {
          "internalType": "uint256",
          "name": "index",
          "type": "uint256"
        }
      ],
      "name": "sellerSignContract",
      "outputs": [],
      "payable": true,
      "stateMutability": "payable",
      "type": "function"
    },
    {
      "constant": true,
      "inputs": [
        {
          "internalType": "address",
          "name": "indexadd",
          "type": "address"
        }
      ],
      "name": "getPropFromLawyer",
      "outputs": [
        {
          "internalType": "uint256[]",
          "name": "",
          "type": "uint256[]"
        }
      ],
      "payable": false,
      "stateMutability": "view",
      "type": "function"
    },
    {
      "constant": true,
      "inputs": [
        {
          "internalType": "uint256",
          "name": "index",
          "type": "uint256"
        }
      ],
      "name": "getInstancePrice",
      "outputs": [
        {
          "internalType": "uint256",
          "name": "",
          "type": "uint256"
        }
      ],
      "payable": false,
      "stateMutability": "view",
      "type": "function"
    },
    {
      "constant": true,
      "inputs": [
        {
          "internalType": "uint256",
          "name": "index",
          "type": "uint256"
        }
      ],
      "name": "getInstanceProptype",
      "outputs": [
        {
          "internalType": "uint256",
          "name": "",
          "type": "uint256"
        }
      ],
      "payable": false,
      "stateMutability": "view",
      "type": "function"
    },
    {
      "constant": true,
      "inputs": [
        {
          "internalType": "uint256",
          "name": "index",
          "type": "uint256"
        }
      ],
      "name": "getContractBalance",
      "outputs": [
        {
          "internalType": "uint256",
          "name": "",
          "type": "uint256"
        }
      ],
      "payable": false,
      "stateMutability": "view",
      "type": "function"
    },
    {
      "constant": true,
      "inputs": [
        {
          "internalType": "uint256",
          "name": "index",
          "type": "uint256"
        }
      ],
      "name": "getwalletbalance",
      "outputs": [
        {
          "internalType": "uint256",
          "name": "",
          "type": "uint256"
        }
      ],
      "payable": false,
      "stateMutability": "view",
      "type": "function"
    },
    {
      "constant": true,
      "inputs": [
        {
          "internalType": "uint256",
          "name": "state",
          "type": "uint256"
        }
      ],
      "name": "getPropFromInvState",
      "outputs": [
        {
          "internalType": "uint256[]",
          "name": "",
          "type": "uint256[]"
        }
      ],
      "payable": false,
      "stateMutability": "view",
      "type": "function"
    },
    {
      "constant": true,
      "inputs": [
        {
          "internalType": "address",
          "name": "indexadd",
          "type": "address"
        }
      ],
      "name": "getPropFromBuyer",
      "outputs": [
        {
          "internalType": "uint256[]",
          "name": "",
          "type": "uint256[]"
        }
      ],
      "payable": false,
      "stateMutability": "view",
      "type": "function"
    },
    {
      "constant": true,
      "inputs": [
        {
          "internalType": "uint256",
          "name": "state",
          "type": "uint256"
        }
      ],
      "name": "getPropFromState",
      "outputs": [
        {
          "internalType": "uint256[]",
          "name": "",
          "type": "uint256[]"
        }
      ],
      "payable": false,
      "stateMutability": "view",
      "type": "function"
    },
    {
      "constant": true,
      "inputs": [
        {
          "internalType": "uint256",
          "name": "index",
          "type": "uint256"
        }
      ],
      "name": "getInstanceBuyerAddress",
      "outputs": [
        {
          "internalType": "address",
          "name": "",
          "type": "address"
        }
      ],
      "payable": false,
      "stateMutability": "view",
      "type": "function"
    },
    {
      "constant": true,
      "inputs": [
        {
          "internalType": "uint256",
          "name": "index",
          "type": "uint256"
        }
      ],
      "name": "getInstanceSellerAddress",
      "outputs": [
        {
          "internalType": "address",
          "name": "",
          "type": "address"
        }
      ],
      "payable": false,
      "stateMutability": "view",
      "type": "function"
    },
    {
      "constant": true,
      "inputs": [
        {
          "internalType": "uint256",
          "name": "index",
          "type": "uint256"
        }
      ],
      "name": "getInstanceState",
      "outputs": [
        {
          "internalType": "uint256",
          "name": "",
          "type": "uint256"
        }
      ],
      "payable": false,
      "stateMutability": "view",
      "type": "function"
    },
    {
      "constant": true,
      "inputs": [
        {
          "internalType": "address",
          "name": "indexadd",
          "type": "address"
        }
      ],
      "name": "getPropFromSeller",
      "outputs": [
        {
          "internalType": "uint256[]",
          "name": "",
          "type": "uint256[]"
        }
      ],
      "payable": false,
      "stateMutability": "view",
      "type": "function"
    },
    {
      "constant": true,
      "inputs": [
        {
          "internalType": "uint256",
          "name": "index",
          "type": "uint256"
        }
      ],
      "name": "getInstanceZIP",
      "outputs": [
        {
          "internalType": "string",
          "name": "",
          "type": "string"
        }
      ],
      "payable": false,
      "stateMutability": "view",
      "type": "function"
    },
    {
      "constant": true,
      "inputs": [
        {
          "internalType": "uint256",
          "name": "index",
          "type": "uint256"
        }
      ],
      "name": "getOTPDeadline",
      "outputs": [
        {
          "internalType": "uint256",
          "name": "",
          "type": "uint256"
        }
      ],
      "payable": false,
      "stateMutability": "view",
      "type": "function"
    },
    {
      "constant": false,
      "inputs": [
        {
          "internalType": "uint256",
          "name": "index",
          "type": "uint256"
        }
      ],
      "name": "buyerFinalizeTransaction",
      "outputs": [],
      "payable": true,
      "stateMutability": "payable",
      "type": "function"
    },
    {
      "constant": false,
      "inputs": [
        {
          "internalType": "uint256",
          "name": "index",
          "type": "uint256"
        }
      ],
      "name": "anyWithdrawPostFinalDeadline",
      "outputs": [],
      "payable": true,
      "stateMutability": "payable",
      "type": "function"
    },
    {
      "constant": false,
      "inputs": [
        {
          "internalType": "uint256",
          "name": "index",
          "type": "uint256"
        }
      ],
      "name": "SellerWithdrawPostExpiry",
      "outputs": [],
      "payable": true,
      "stateMutability": "payable",
      "type": "function"
    },
    {
      "constant": true,
      "inputs": [
        {
          "internalType": "uint256",
          "name": "index",
          "type": "uint256"
        }
      ],
      "name": "getLastOpsTime",
      "outputs": [
        {
          "internalType": "uint256",
          "name": "",
          "type": "uint256"
        }
      ],
      "payable": false,
      "stateMutability": "view",
      "type": "function"
    },
    {
      "constant": true,
      "inputs": [
        {
          "internalType": "uint256",
          "name": "index",
          "type": "uint256"
        }
      ],
      "name": "getInstanceAgentFee",
      "outputs": [
        {
          "internalType": "uint256",
          "name": "",
          "type": "uint256"
        }
      ],
      "payable": false,
      "stateMutability": "view",
      "type": "function"
    },
    {
      "constant": true,
      "inputs": [
        {
          "internalType": "uint256",
          "name": "proptype",
          "type": "uint256"
        }
      ],
      "name": "getPropFromPropType",
      "outputs": [
        {
          "internalType": "uint256[]",
          "name": "",
          "type": "uint256[]"
        }
      ],
      "payable": false,
      "stateMutability": "view",
      "type": "function"
    },
    {
      "constant": true,
      "inputs": [
        {
          "internalType": "uint256",
          "name": "index",
          "type": "uint256"
        }
      ],
      "name": "getInstanceBlockentry",
      "outputs": [
        {
          "internalType": "string",
          "name": "",
          "type": "string"
        }
      ],
      "payable": false,
      "stateMutability": "view",
      "type": "function"
    },
    {
      "constant": false,
      "inputs": [
        {
          "internalType": "uint256",
          "name": "index",
          "type": "uint256"
        }
      ],
      "name": "buyerSignContractAndPayDeposit",
      "outputs": [],
      "payable": true,
      "stateMutability": "payable",
      "type": "function"
    },
    {
      "constant": false,
      "inputs": [
        {
          "internalType": "uint256",
          "name": "index",
          "type": "uint256"
        }
      ],
      "name": "SellerRejectBuyer",
      "outputs": [],
      "payable": true,
      "stateMutability": "payable",
      "type": "function"
    },
    {
      "constant": true,
      "inputs": [
        {
          "internalType": "uint256",
          "name": "index",
          "type": "uint256"
        }
      ],
      "name": "getFinalPaymentDeadline",
      "outputs": [
        {
          "internalType": "uint256",
          "name": "",
          "type": "uint256"
        }
      ],
      "payable": false,
      "stateMutability": "view",
      "type": "function"
    },
    {
      "constant": true,
      "inputs": [
        {
          "internalType": "uint256",
          "name": "index",
          "type": "uint256"
        }
      ],
      "name": "getInstanceAcco",
      "outputs": [
        {
          "internalType": "uint256",
          "name": "",
          "type": "uint256"
        }
      ],
      "payable": false,
      "stateMutability": "view",
      "type": "function"
    },
    {
      "constant": false,
      "inputs": [
        {
          "internalType": "uint256",
          "name": "index",
          "type": "uint256"
        },
        {
          "internalType": "string",
          "name": "blkoffer",
          "type": "string"
        },
        {
          "internalType": "uint256",
          "name": "offerpx",
          "type": "uint256"
        }
      ],
      "name": "buyerShowsInterest",
      "outputs": [],
      "payable": true,
      "stateMutability": "payable",
      "type": "function"
    },
    {
      "constant": false,
      "inputs": [
        {
          "internalType": "string",
          "name": "_address",
          "type": "string"
        },
        {
          "internalType": "string",
          "name": "_zip",
          "type": "string"
        },
        {
          "internalType": "uint256",
          "name": "_realtorFee",
          "type": "uint256"
        },
        {
          "internalType": "uint256",
          "name": "_price",
          "type": "uint256"
        },
        {
          "internalType": "uint256",
          "name": "_proptype",
          "type": "uint256"
        },
        {
          "internalType": "uint256",
          "name": "_acco",
          "type": "uint256"
        },
        {
          "internalType": "uint256",
          "name": "_proparea",
          "type": "uint256"
        },
        {
          "internalType": "string",
          "name": "_blockentry",
          "type": "string"
        },
        {
          "internalType": "address payable",
          "name": "_Agent",
          "type": "address"
        }
      ],
      "name": "create",
      "outputs": [
        {
          "internalType": "contract HomeTransaction",
          "name": "homeTransaction",
          "type": "address"
        }
      ],
      "payable": false,
      "stateMutability": "nonpayable",
      "type": "function"
    },
    {
      "constant": true,
      "inputs": [],
      "name": "getInstanceCount",
      "outputs": [
        {
          "internalType": "uint256",
          "name": "count",
          "type": "uint256"
        }
      ],
      "payable": false,
      "stateMutability": "view",
      "type": "function"
    },
    {
      "constant": true,
      "inputs": [
        {
          "internalType": "uint256",
          "name": "index",
          "type": "uint256"
        }
      ],
      "name": "getContractAddress",
      "outputs": [
        {
          "internalType": "address",
          "name": "",
          "type": "address"
        }
      ],
      "payable": false,
      "stateMutability": "view",
      "type": "function"
    },
    {
      "constant": true,
      "inputs": [
        {
          "internalType": "uint256",
          "name": "index",
          "type": "uint256"
        }
      ],
      "name": "getInstanceBlockoffer",
      "outputs": [
        {
          "internalType": "string",
          "name": "",
          "type": "string"
        }
      ],
      "payable": false,
      "stateMutability": "view",
      "type": "function"
    },
    {
      "constant": true,
      "inputs": [
        {
          "internalType": "uint256",
          "name": "index",
          "type": "uint256"
        }
      ],
      "name": "getContractAllowance",
      "outputs": [
        {
          "internalType": "uint256",
          "name": "",
          "type": "uint256"
        }
      ],
      "payable": false,
      "stateMutability": "view",
      "type": "function"
    },
    {
      "constant": false,
      "inputs": [
        {
          "internalType": "uint256",
          "name": "index",
          "type": "uint256"
        }
      ],
      "name": "anyWithdrawFromTransaction",
      "outputs": [],
      "payable": true,
      "stateMutability": "payable",
      "type": "function"
    },
    {
      "constant": true,
      "inputs": [
        {
          "internalType": "uint256",
          "name": "index",
          "type": "uint256"
        }
      ],
      "name": "getInstanceAgentAddress",
      "outputs": [
        {
          "internalType": "address",
          "name": "",
          "type": "address"
        }
      ],
      "payable": false,
      "stateMutability": "view",
      "type": "function"
    },
    {
      "constant": false,
      "inputs": [
        {
          "internalType": "uint256",
          "name": "index",
          "type": "uint256"
        }
      ],
      "name": "buyerPaysOTPAmount",
      "outputs": [],
      "payable": true,
      "stateMutability": "payable",
      "type": "function"
    },
    {
      "constant": true,
      "inputs": [],
      "name": "getInstances",
      "outputs": [
        {
          "internalType": "contract HomeTransaction[]",
          "name": "instances",
          "type": "address[]"
        }
      ],
      "payable": false,
      "stateMutability": "view",
      "type": "function"
    },
    {
      "constant": true,
      "inputs": [
        {
          "internalType": "uint256",
          "name": "index",
          "type": "uint256"
        }
      ],
      "name": "getInstancePropArea",
      "outputs": [
        {
          "internalType": "uint256",
          "name": "",
          "type": "uint256"
        }
      ],
      "payable": false,
      "stateMutability": "view",
      "type": "function"
    },
    {
      "constant": true,
      "inputs": [
        {
          "internalType": "uint256",
          "name": "index",
          "type": "uint256"
        }
      ],
      "name": "getInstanceAddress",
      "outputs": [
        {
          "internalType": "string",
          "name": "",
          "type": "string"
        }
      ],
      "payable": false,
      "stateMutability": "view",
      "type": "function"
    },
    {
      "constant": true,
      "inputs": [
        {
          "internalType": "uint256",
          "name": "index",
          "type": "uint256"
        }
      ],
      "name": "getInstance",
      "outputs": [
        {
          "internalType": "contract HomeTransaction",
          "name": "instance",
          "type": "address"
        }
      ],
      "payable": false,
      "stateMutability": "view",
      "type": "function"
    },
    {
      "constant": false,
      "inputs": [
        {
          "internalType": "uint256",
          "name": "index",
          "type": "uint256"
        },
        {
          "internalType": "bool",
          "name": "accept",
          "type": "bool"
        }
      ],
      "name": "AgentReviewedClosingConditions",
      "outputs": [],
      "payable": true,
      "stateMutability": "payable",
      "type": "function"
    },
    {
      "inputs": [
        {
          "internalType": "string",
          "name": "_greeting",
          "type": "string"
        }
      ],
      "payable": false,
      "stateMutability": "nonpayable",
      "type": "constructor"
    },
    {
      "anonymous": false,
      "inputs": [
        {
          "indexed": true,
          "internalType": "address",
          "name": "_from",
          "type": "address"
        },
        {
          "indexed": false,
          "internalType": "uint256",
          "name": "_index",
          "type": "uint256"
        },
        {
          "indexed": false,
          "internalType": "uint256",
          "name": "_value",
          "type": "uint256"
        }
      ],
      "name": "ShowIterest",
      "type": "event"
    }
  ],
  "bytecode": "0x60806040523480156200001157600080fd5b50604051620046e5380380620046e5833981810160405260208110156200003757600080fd5b81019080805160405193929190846401000000008211156200005857600080fd5b9083019060208201858111156200006e57600080fd5b82516401000000008111828201881017156200008957600080fd5b82525081516020918201929091019080838360005b83811015620000b85781810151838201526020016200009e565b50505050905090810190601f168015620000e65780820380516001836020036101000a031916815260200191505b50604052505050506145e780620000fe6000396000f3fe608060405260043610620002715760003560e01c80637e6bc31d116200014b578063bbe2bd2211620000bb578063d35fdd791162000079578063d35fdd791462000b95578063dbff9c8a1462000bad578063e9bdc18a1462000bdb578063ebd348de1462000c09578063f828fa951462000c375762000271565b8063bbe2bd221462000acb578063c6389f6b1462000af9578063c6f56def1462000b27578063c903b45c1462000b47578063c9e3bfff1462000b755762000271565b8063a5f7597f1162000109578063a5f7597f14620007b5578063a619078f14620007e3578063a81be58d1462000896578063ae34325c1462000a85578063aefa7d981462000a9d5762000271565b80637e6bc31d14620006eb57806384d596da14620007195780639938a3c714620007475780639de665bb1462000767578063a45b694b14620007875762000271565b80631c22cc4a11620001e75780634e9dcb5811620001a55780634e9dcb58146200062f57806352d21087146200064f57806354d56887146200066f578063595a45fe146200068f5780635d32927814620006bd5762000271565b80631c22cc4a14620004c857806334be341914620004f65780633df25f2414620005245780633ed54a79146200055b5780634a31d30614620006015762000271565b8063086ccea31162000235578063086ccea314620003bd5780630954225714620003eb5780630a180b8d146200041957806318299b9114620004505780631a952acf146200047e5762000271565b8062ff4b3d14620002765780630347784f1462000298578063035211c61462000321578063052df04c146200036157806305d63070146200038f575b600080fd5b62000296600480360360208110156200028e57600080fd5b503562000c5f565b005b348015620002a557600080fd5b50620002cf60048036036020811015620002be57600080fd5b50356001600160a01b031662000d49565b60408051602080825283518183015283519192839290830191858101910280838360005b838110156200030d578181015183820152602001620002f3565b505050509050019250505060405180910390f35b3480156200032e57600080fd5b506200034f600480360360208110156200034757600080fd5b503562000dde565b60408051918252519081900360200190f35b3480156200036e57600080fd5b506200034f600480360360208110156200038757600080fd5b503562000eb6565b3480156200039c57600080fd5b506200034f60048036036020811015620003b557600080fd5b503562000f59565b348015620003ca57600080fd5b506200034f60048036036020811015620003e357600080fd5b503562001045565b348015620003f857600080fd5b50620002cf600480360360208110156200041157600080fd5b50356200111a565b3480156200042657600080fd5b50620002cf600480360360208110156200043f57600080fd5b50356001600160a01b031662001195565b3480156200045d57600080fd5b50620002cf600480360360208110156200047657600080fd5b503562001223565b3480156200048b57600080fd5b50620004ac60048036036020811015620004a457600080fd5b50356200129f565b604080516001600160a01b039092168252519081900360200190f35b348015620004d557600080fd5b50620004ac60048036036020811015620004ee57600080fd5b503562001342565b3480156200050357600080fd5b506200034f600480360360208110156200051c57600080fd5b5035620013e5565b3480156200053157600080fd5b50620002cf600480360360208110156200054a57600080fd5b50356001600160a01b0316620014c9565b3480156200056857600080fd5b5062000589600480360360208110156200058157600080fd5b503562001557565b6040805160208082528351818301528351919283929083019185019080838360005b83811015620005c5578181015183820152602001620005ab565b50505050905090810190601f168015620005f35780820380516001836020036101000a031916815260200191505b509250505060405180910390f35b3480156200060e57600080fd5b506200034f600480360360208110156200062757600080fd5b5035620016f3565b62000296600480360360208110156200064757600080fd5b503562001796565b62000296600480360360208110156200066757600080fd5b503562001880565b62000296600480360360208110156200068757600080fd5b50356200196a565b3480156200069c57600080fd5b506200034f60048036036020811015620006b557600080fd5b503562001a0a565b348015620006ca57600080fd5b506200034f60048036036020811015620006e357600080fd5b503562001aad565b348015620006f857600080fd5b50620002cf600480360360208110156200071157600080fd5b503562001b50565b3480156200072657600080fd5b5062000589600480360360208110156200073f57600080fd5b503562001bcc565b62000296600480360360208110156200075f57600080fd5b503562001c6f565b62000296600480360360208110156200077f57600080fd5b503562001d59565b3480156200079457600080fd5b506200034f60048036036020811015620007ad57600080fd5b503562001dfd565b348015620007c257600080fd5b506200034f60048036036020811015620007db57600080fd5b503562001ea0565b6200029660048036036060811015620007fb57600080fd5b81359190810190604081016020820135600160201b8111156200081d57600080fd5b8201836020820111156200083057600080fd5b803590602001918460018302840111600160201b831117156200085257600080fd5b91908080601f016020809104026020016040519081016040528093929190818152602001838380828437600092019190915250929550509135925062001f43915050565b348015620008a357600080fd5b50620004ac6004803603610120811015620008bd57600080fd5b810190602081018135600160201b811115620008d857600080fd5b820183602082011115620008eb57600080fd5b803590602001918460018302840111600160201b831117156200090d57600080fd5b91908080601f0160208091040260200160405190810160405280939291908181526020018383808284376000920191909152509295949360208101935035915050600160201b8111156200096057600080fd5b8201836020820111156200097357600080fd5b803590602001918460018302840111600160201b831117156200099557600080fd5b91908080601f016020809104026020016040519081016040528093929190818152602001838380828437600092019190915250929584359560208601359560408101359550606081013594506080810135935060c081019060a00135600160201b81111562000a0357600080fd5b82018360208201111562000a1657600080fd5b803590602001918460018302840111600160201b8311171562000a3857600080fd5b91908080601f016020809104026020016040519081016040528093929190818152602001838380828437600092019190915250929550505090356001600160a01b03169150620020b69050565b34801562000a9257600080fd5b506200034f620022f7565b34801562000aaa57600080fd5b50620004ac6004803603602081101562000ac357600080fd5b5035620022fd565b34801562000ad857600080fd5b50620005896004803603602081101562000af157600080fd5b50356200235b565b34801562000b0657600080fd5b506200034f6004803603602081101562000b1f57600080fd5b5035620023fe565b620002966004803603602081101562000b3f57600080fd5b503562002504565b34801562000b5457600080fd5b50620004ac6004803603602081101562000b6d57600080fd5b5035620025a5565b620002966004803603602081101562000b8d57600080fd5b503562002648565b34801562000ba257600080fd5b50620002cf62002732565b34801562000bba57600080fd5b506200034f6004803603602081101562000bd357600080fd5b503562002796565b34801562000be857600080fd5b50620005896004803603602081101562000c0157600080fd5b503562002839565b34801562000c1657600080fd5b50620004ac6004803603602081101562000c2f57600080fd5b5035620028dc565b620002966004803603604081101562000c4f57600080fd5b508035906020013515156200294c565b600054811062000ca5576040805162461bcd60e51b8152602060048201526012602482015260008051602062004573833981519152604482015290519081900360640190fd5b600080828154811062000cb457fe5b6000918252602082200154604080516318be633f60e01b815290516001600160a01b03909216935083926318be633f9260048084019382900301818387803b15801562000d0057600080fd5b505af115801562000d15573d6000803e3d6000fd5b5050604080518581526002602082015281513394506000805160206200459383398151915293509081900390910190a25050565b60005460408051828152602080840282010190915260609190829082801562000d7c578160200160208202803883390190505b50905060005b8281101562000dd657846001600160a01b031662000da082620025a5565b6001600160a01b03161462000dcd578060010182828151811062000dc057fe5b6020026020010181815250505b60010162000d82565b509392505050565b60008054821062000e25576040805162461bcd60e51b8152602060048201526012602482015260008051602062004573833981519152604482015290519081900360640190fd5b600080838154811062000e3457fe5b600091825260209182902001546040805163501ad8ff60e11b815290516001600160a01b039092169350839263a035b1fe92600480840193829003018186803b15801562000e8157600080fd5b505afa15801562000e96573d6000803e3d6000fd5b505050506040513d602081101562000ead57600080fd5b50519392505050565b60008054821062000efd576040805162461bcd60e51b8152602060048201526012602482015260008051602062004573833981519152604482015290519081900360640190fd5b600080838154811062000f0c57fe5b600091825260209182902001546040805163ccd3c77560e01b815290516001600160a01b039092169350839263ccd3c77592600480840193829003018186803b15801562000e8157600080fd5b6000806000838154811062000f6a57fe5b600091825260209182902001546040805163d21220a760e01b815290516001600160a01b039092169350839263d21220a792600480840193829003018186803b15801562000fb757600080fd5b505afa15801562000fcc573d6000803e3d6000fd5b505050506040513d602081101562000fe357600080fd5b50516001600160a01b03166370a0823162000ffe85620022fd565b6040518263ffffffff1660e01b815260040180826001600160a01b03166001600160a01b0316815260200191505060206040518083038186803b15801562000e8157600080fd5b600080600083815481106200105657fe5b600091825260209182902001546040805163d21220a760e01b815290516001600160a01b039092169350839263d21220a792600480840193829003018186803b158015620010a357600080fd5b505afa158015620010b8573d6000803e3d6000fd5b505050506040513d6020811015620010cf57600080fd5b5051604080516370a0823160e01b815232600482015290516001600160a01b03909216916370a0823191602480820192602092909190829003018186803b15801562000e8157600080fd5b6000546040805182815260208084028201019091526060919082908280156200114d578160200160208202803883390190505b50905060005b8281101562000dd657846200116882620013e5565b146200118c57806001018282815181106200117f57fe5b6020026020010181815250505b60010162001153565b600054604080518281526020808402820101909152606091908290828015620011c8578160200160208202803883390190505b50905060005b8281101562000dd657846001600160a01b0316620011ec826200129f565b6001600160a01b031614156200121a57806001018282815181106200120d57fe5b6020026020010181815250505b600101620011ce565b60005460408051828152602080840282010190915260609190829082801562001256578160200160208202803883390190505b50905060005b8281101562000dd657846200127182620013e5565b14156200129657806001018282815181106200128957fe5b6020026020010181815250505b6001016200125c565b600080548210620012e6576040805162461bcd60e51b8152602060048201526012602482015260008051602062004573833981519152604482015290519081900360640190fd5b6000808381548110620012f557fe5b60009182526020918290200154604080516338a86c5760e11b815290516001600160a01b0390921693508392637150d8ae92600480840193829003018186803b15801562000e8157600080fd5b60008054821062001389576040805162461bcd60e51b8152602060048201526012602482015260008051602062004573833981519152604482015290519081900360640190fd5b60008083815481106200139857fe5b60009182526020918290200154604080516308551a5360e01b815290516001600160a01b03909216935083926308551a5392600480840193829003018186803b15801562000e8157600080fd5b6000805482106200142c576040805162461bcd60e51b8152602060048201526012602482015260008051602062004573833981519152604482015290519081900360640190fd5b60008083815481106200143b57fe5b600091825260209182902001546040805163042904f760e51b815290516001600160a01b03909216935083926385209ee092600480840193829003018186803b1580156200148857600080fd5b505afa1580156200149d573d6000803e3d6000fd5b505050506040513d6020811015620014b457600080fd5b50516007811115620014c257fe5b9392505050565b600054604080518281526020808402820101909152606091908290828015620014fc578160200160208202803883390190505b50905060005b8281101562000dd657846001600160a01b0316620015208262001342565b6001600160a01b031614156200154e57806001018282815181106200154157fe5b6020026020010181815250505b60010162001502565b6000546060908210620015a0576040805162461bcd60e51b8152602060048201526012602482015260008051602062004573833981519152604482015290519081900360640190fd5b6000808381548110620015af57fe5b6000918252602082200154604080516291905560e01b815290516001600160a01b03909216935083926291905592600480840193829003018186803b158015620015f857600080fd5b505afa1580156200160d573d6000803e3d6000fd5b505050506040513d6000823e601f3d908101601f1916820160405260208110156200163757600080fd5b8101908080516040519392919084600160201b8211156200165757600080fd5b9083019060208201858111156200166d57600080fd5b8251600160201b8111828201881017156200168757600080fd5b82525081516020918201929091019080838360005b83811015620016b65781810151838201526020016200169c565b50505050905090810190601f168015620016e45780820380516001836020036101000a031916815260200191505b50604052505050915050919050565b6000805482106200173a576040805162461bcd60e51b8152602060048201526012602482015260008051602062004573833981519152604482015290519081900360640190fd5b60008083815481106200174957fe5b60009182526020918290200154604080516316498c1560e11b815290516001600160a01b0390921693508392632c93182a92600480840193829003018186803b15801562000e8157600080fd5b6000548110620017dc576040805162461bcd60e51b8152602060048201526012602482015260008051602062004573833981519152604482015290519081900360640190fd5b6000808281548110620017eb57fe5b600091825260208220015460408051632323f8f560e01b815290516001600160a01b0390921693508392632323f8f59260048084019382900301818387803b1580156200183757600080fd5b505af11580156200184c573d6000803e3d6000fd5b5050604080518581526006602082015281513394506000805160206200459383398151915293509081900390910190a25050565b6000548110620018c6576040805162461bcd60e51b8152602060048201526012602482015260008051602062004573833981519152604482015290519081900360640190fd5b6000808281548110620018d557fe5b600091825260208220015460408051630d437d9160e31b815290516001600160a01b0390921693508392636a1bec889260048084019382900301818387803b1580156200192157600080fd5b505af115801562001936573d6000803e3d6000fd5b5050604080518581526000602082015281513394506000805160206200459383398151915293509081900390910190a25050565b6000548110620019b0576040805162461bcd60e51b8152602060048201526012602482015260008051602062004573833981519152604482015290519081900360640190fd5b6000808281548110620019bf57fe5b60009182526020822001546040805162cea2c360e71b815290516001600160a01b039092169350839263675161809260048084019382900301818387803b1580156200192157600080fd5b60008054821062001a51576040805162461bcd60e51b8152602060048201526012602482015260008051602062004573833981519152604482015290519081900360640190fd5b600080838154811062001a6057fe5b60009182526020918290200154604080516316d43a9760e01b815290516001600160a01b03909216935083926316d43a9792600480840193829003018186803b15801562000e8157600080fd5b60008054821062001af4576040805162461bcd60e51b8152602060048201526012602482015260008051602062004573833981519152604482015290519081900360640190fd5b600080838154811062001b0357fe5b600091825260209182902001546040805163bd38347360e01b815290516001600160a01b039092169350839263bd38347392600480840193829003018186803b15801562000e8157600080fd5b60005460408051828152602080840282010190915260609190829082801562001b83578160200160208202803883390190505b50905060005b8281101562000dd6578462001b9e82620013e5565b141562001bc3578060010182828151811062001bb657fe5b6020026020010181815250505b60010162001b89565b600054606090821062001c15576040805162461bcd60e51b8152602060048201526012602482015260008051602062004573833981519152604482015290519081900360640190fd5b600080838154811062001c2457fe5b600091825260208220015460408051633adf668d60e11b815290516001600160a01b03909216935083926375becd1a92600480840193829003018186803b158015620015f857600080fd5b600054811062001cb5576040805162461bcd60e51b8152602060048201526012602482015260008051602062004573833981519152604482015290519081900360640190fd5b600080828154811062001cc457fe5b600091825260208220015460408051634ed523e960e01b815290516001600160a01b0390921693508392634ed523e99260048084019382900301818387803b15801562001d1057600080fd5b505af115801562001d25573d6000803e3d6000fd5b5050604080518581526003602082015281513394506000805160206200459383398151915293509081900390910190a25050565b600054811062001d9f576040805162461bcd60e51b8152602060048201526012602482015260008051602062004573833981519152604482015290519081900360640190fd5b600080828154811062001dae57fe5b6000918252602082200154604080516001620ab4bf60e41b0319815290516001600160a01b039092169350839263ff54b4109260048084019382900301818387803b1580156200192157600080fd5b60008054821062001e44576040805162461bcd60e51b8152602060048201526012602482015260008051602062004573833981519152604482015290519081900360640190fd5b600080838154811062001e5357fe5b600091825260209182902001546040805163a0cb23cd60e01b815290516001600160a01b039092169350839263a0cb23cd92600480840193829003018186803b15801562000e8157600080fd5b60008054821062001ee7576040805162461bcd60e51b8152602060048201526012602482015260008051602062004573833981519152604482015290519081900360640190fd5b600080838154811062001ef657fe5b600091825260209182902001546040805163057a92ed60e21b815290516001600160a01b03909216935083926315ea4bb492600480840193829003018186803b15801562000e8157600080fd5b600054831062001f89576040805162461bcd60e51b8152602060048201526012602482015260008051602062004573833981519152604482015290519081900360640190fd5b600080848154811062001f9857fe5b6000918252602080832090910154604051636dce559160e11b81523360048201818152604483018890526060602484019081528951606485015289516001600160a01b039095169750879663db9cab229693958b958b9560849091019290870191908190849084905b838110156200201b57818101518382015260200162002001565b50505050905090810190601f168015620020495780820380516001836020036101000a031916815260200191505b50945050505050600060405180830381600087803b1580156200206b57600080fd5b505af115801562002080573d6000803e3d6000fd5b5050604080518781526001602082015281513394506000805160206200459383398151915293509081900390910190a250505050565b60008989898989898989893333604051620020d19062002a3f565b8080602001806020018c81526020018b81526020018a815260200189815260200188815260200180602001876001600160a01b03166001600160a01b03168152602001866001600160a01b03166001600160a01b03168152602001856001600160a01b03166001600160a01b0316815260200184810384528f818151815260200191508051906020019080838360005b838110156200217b57818101518382015260200162002161565b50505050905090810190601f168015620021a95780820380516001836020036101000a031916815260200191505b5084810383528e818151815260200191508051906020019080838360005b83811015620021e1578181015183820152602001620021c7565b50505050905090810190601f1680156200220f5780820380516001836020036101000a031916815260200191505b5084810382528851815288516020918201918a019080838360005b83811015620022445781810151838201526020016200222a565b50505050905090810190601f168015620022725780820380516001836020036101000a031916815260200191505b509e505050505050505050505050505050604051809103906000f080158015620022a0573d6000803e3d6000fd5b50600080546001810182559080527f290decd9548b62a8d60345a988386fc84ba6bc95484008f6362f93160ef3e5630180546001600160a01b0319166001600160a01b0383161790559a9950505050505050505050565b60005490565b600080600083815481106200230e57fe5b6000918252602091829020015460408051637da71c3560e11b815290516001600160a01b039092169350839263fb4e386a92600480840193829003018186803b15801562000e8157600080fd5b6000546060908210620023a4576040805162461bcd60e51b8152602060048201526012602482015260008051602062004573833981519152604482015290519081900360640190fd5b6000808381548110620023b357fe5b60009182526020822001546040805163331f98fd60e01b815290516001600160a01b039092169350839263331f98fd92600480840193829003018186803b158015620015f857600080fd5b600080600083815481106200240f57fe5b600091825260209182902001546040805163d21220a760e01b815290516001600160a01b039092169350839263d21220a792600480840193829003018186803b1580156200245c57600080fd5b505afa15801562002471573d6000803e3d6000fd5b505050506040513d60208110156200248857600080fd5b50516001600160a01b031663dd62ed3e32620024a486620022fd565b6040518363ffffffff1660e01b815260040180836001600160a01b03166001600160a01b03168152602001826001600160a01b03166001600160a01b031681526020019250505060206040518083038186803b15801562000e8157600080fd5b60005481106200254a576040805162461bcd60e51b8152602060048201526012602482015260008051602062004573833981519152604482015290519081900360640190fd5b60008082815481106200255957fe5b60009182526020822001546040805163ba0892d960e01b815290516001600160a01b039092169350839263ba0892d99260048084019382900301818387803b1580156200192157600080fd5b600080548210620025ec576040805162461bcd60e51b8152602060048201526012602482015260008051602062004573833981519152604482015290519081900360640190fd5b6000808381548110620025fb57fe5b6000918252602091829020015460408051639068ed1760e01b815290516001600160a01b0390921693508392639068ed1792600480840193829003018186803b15801562000e8157600080fd5b60005481106200268e576040805162461bcd60e51b8152602060048201526012602482015260008051602062004573833981519152604482015290519081900360640190fd5b60008082815481106200269d57fe5b600091825260208220015460408051630d62b85360e41b815290516001600160a01b039092169350839263d62b85309260048084019382900301818387803b158015620026e957600080fd5b505af1158015620026fe573d6000803e3d6000fd5b5050604080518581526004602082015281513394506000805160206200459383398151915293509081900390910190a25050565b606060008054806020026020016040519081016040528092919081815260200182805480156200278c57602002820191906000526020600020905b81546001600160a01b031681526001909101906020018083116200276d575b5050505050905090565b600080548210620027dd576040805162461bcd60e51b8152602060048201526012602482015260008051602062004573833981519152604482015290519081900360640190fd5b6000808381548110620027ec57fe5b6000918252602091829020015460408051637f1c4edb60e11b815290516001600160a01b039092169350839263fe389db692600480840193829003018186803b15801562000e8157600080fd5b600054606090821062002882576040805162461bcd60e51b8152602060048201526012602482015260008051602062004573833981519152604482015290519081900360640190fd5b60008083815481106200289157fe5b600091825260208220015460408051630f629ad360e41b815290516001600160a01b039092169350839263f629ad3092600480840193829003018186803b158015620015f857600080fd5b60008054821062002923576040805162461bcd60e51b8152602060048201526012602482015260008051602062004573833981519152604482015290519081900360640190fd5b600082815481106200293157fe5b6000918252602090912001546001600160a01b031692915050565b600054821062002992576040805162461bcd60e51b8152602060048201526012602482015260008051602062004573833981519152604482015290519081900360640190fd5b6000808381548110620029a157fe5b60009182526020822001546040805163c7297f7b60e01b8152851515600482015290516001600160a01b039092169350839263c7297f7b9260248084019382900301818387803b158015620029f557600080fd5b505af115801562002a0a573d6000803e3d6000fd5b5050604080518681526005602082015281513394506000805160206200459383398151915293509081900390910190a2505050565b611b258062002a4e8339019056fe60806040526015805460ff191690553480156200001b57600080fd5b5060405162001b2538038062001b2583398181016040526101608110156200004257600080fd5b81019080805160405193929190846401000000008211156200006357600080fd5b9083019060208201858111156200007957600080fd5b82516401000000008111828201881017156200009457600080fd5b82525081516020918201929091019080838360005b83811015620000c3578181015183820152602001620000a9565b50505050905090810190601f168015620000f15780820380516001836020036101000a031916815260200191505b50604052602001805160405193929190846401000000008211156200011557600080fd5b9083019060208201858111156200012b57600080fd5b82516401000000008111828201881017156200014657600080fd5b82525081516020918201929091019080838360005b83811015620001755781810151838201526020016200015b565b50505050905090810190601f168015620001a35780820380516001836020036101000a031916815260200191505b5060408181526020830151908301516060840151608085015160a086015160c09096018051949893979296919591949193929184640100000000821115620001ea57600080fd5b9083019060208201858111156200020057600080fd5b82516401000000008111828201881017156200021b57600080fd5b82525081516020918201929091019080838360005b838110156200024a57818101518382015260200162000230565b50505050905090810190601f168015620002785780820380516001836020036101000a031916815260200191505b50604090815260208201519082015160609092015190935090915088881015620002ee576040517f08c379a000000000000000000000000000000000000000000000000000000000815260040180806020018281038252602681526020018062001aff6026913960400191505060405180910390fd5b60008054731484a6020a0f08400f6f56715016d2c80e26cdc16001600160a01b031991821617909155600180549091166001600160a01b038516179055600b8790556006805460ff19169055600e869055600f85905583516200035990600c906020870190620003dd565b50600280546001600160a01b0384166001600160a01b03199182161790915560038054909116331790558a51620003989060059060208e0190620003dd565b50600480546001600160a01b031916301790558951620003c09060079060208d0190620003dd565b505050600995909555505050600892909255506200048292505050565b828054600181600116156101000203166002900490600052602060002090601f016020900481019282601f106200042057805160ff191683800117855562000450565b8280016001018555821562000450579182015b828111156200045057825182559160200191906001019062000433565b506200045e92915062000462565b5090565b6200047f91905b808211156200045e576000815560010162000469565b90565b61166d80620004926000396000f3fe6080604052600436106101d65760003560e01c80639068ed1711610102578063d21220a711610095578063fb4e386a11610064578063fb4e386a14610554578063fe24e86e14610569578063fe389db61461057e578063ff54b41014610593576101d6565b8063d21220a71461045d578063d62b853014610472578063db9cab221461047a578063f629ad301461053f576101d6565b8063bd383473116100d1578063bd383473146103f2578063c7297f7b14610407578063ccd3c77514610433578063d0e30db014610448576101d6565b80639068ed17146103ab578063a035b1fe146103c0578063a0cb23cd146103d5578063ba0892d9146103ea576101d6565b80632c93182a1161017a5780636a1bec88116101495780636a1bec88146103405780637150d8ae1461034857806375becd1a1461035d57806385209ee014610372576101d6565b80632c93182a146102f9578063331f98fd1461030e5780634ed523e9146103235780636751618014610338576101d6565b806315ea4bb4116101b657806315ea4bb4146102bd57806316d43a97146102d257806318be633f146102e75780632323f8f5146102f1576101d6565b806263fcf0146101db5780629190551461020257806308551a531461028c575b600080fd5b3480156101e757600080fd5b506101f061059b565b60408051918252519081900360200190f35b34801561020e57600080fd5b506102176105a1565b6040805160208082528351818301528351919283929083019185019080838360005b83811015610251578181015183820152602001610239565b50505050905090810190601f16801561027e5780820380516001836020036101000a031916815260200191505b509250505060405180910390f35b34801561029857600080fd5b506102a161062f565b604080516001600160a01b039092168252519081900360200190f35b3480156102c957600080fd5b506101f061063e565b3480156102de57600080fd5b506101f0610644565b6102ef61064a565b005b6102ef61071e565b34801561030557600080fd5b506101f0610a0e565b34801561031a57600080fd5b50610217610a14565b34801561032f57600080fd5b506102ef610a6f565b6102ef610c3e565b6102ef610e0d565b34801561035457600080fd5b506102a1610e54565b34801561036957600080fd5b50610217610e63565b34801561037e57600080fd5b50610387610ebe565b6040518082600781111561039757fe5b60ff16815260200191505060405180910390f35b3480156103b757600080fd5b506102a1610ec7565b3480156103cc57600080fd5b506101f0610ed6565b3480156103e157600080fd5b506101f0610edc565b6102ef610ee2565b3480156103fe57600080fd5b506101f0610f4b565b34801561041357600080fd5b506102ef6004803603602081101561042a57600080fd5b50351515610f51565b34801561043f57600080fd5b506101f0611114565b34801561045457600080fd5b506101f061111a565b34801561046957600080fd5b506102a1611120565b6102ef61112f565b34801561048657600080fd5b506102ef6004803603606081101561049d57600080fd5b6001600160a01b0382351691908101906040810160208201356401000000008111156104c857600080fd5b8201836020820111156104da57600080fd5b803590602001918460018302840111640100000000831117156104fc57600080fd5b91908080601f01602080910402602001604051908101604052809392919081815260200183838082843760009201919091525092955050913592506112f2915050565b34801561054b57600080fd5b5061021761138e565b34801561056057600080fd5b506102a16113e9565b34801561057557600080fd5b506101f06113f8565b34801561058a57600080fd5b506101f06113fe565b6102ef611404565b60115481565b6007805460408051602060026001851615610100026000190190941693909304601f810184900484028201840190925281815292918301828280156106275780601f106105fc57610100808354040283529160200191610627565b820191906000526020600020905b81548152906001019060200180831161060a57829003601f168201915b505050505081565b6002546001600160a01b031681565b600e5481565b60145481565b6002546001600160a01b031632146106a9576040805162461bcd60e51b815260206004820152601d60248201527f4f6e6c792073656c6c65722063616e207369676e20636f6e7472616374000000604482015290519081900360640190fd5b600160065460ff1660078111156106bc57fe5b146106fc576040805162461bcd60e51b81526020600482015260146024820152600080516020611619833981519152604482015290519081900360640190fd5b6006805460ff1916600217905542601455600a541561071c57600a546009555b565b600560065460ff16600781111561073157fe5b14610771576040805162461bcd60e51b81526020600482015260146024820152600080516020611619833981519152604482015290519081900360640190fd5b600954606490605a02600054604080516370a0823160e01b8152326004820152905193909204926001600160a01b03909116916370a08231916024808301926020929190829003018186803b1580156107c957600080fd5b505afa1580156107dd573d6000803e3d6000fd5b505050506040513d60208110156107f357600080fd5b50511015610848576040805162461bcd60e51b815260206004820152601860248201527f506c6561736520746f70207570207468652057616c6c65740000000000000000604482015290519081900360640190fd5b60008054600954604080516323b872dd60e01b81523260048201523060248201526064605a909302839004604482015290516001600160a01b03909316936323b872dd93828401936020939192918390030190829087803b1580156108ac57600080fd5b505af11580156108c0573d6000803e3d6000fd5b505050506040513d60208110156108d657600080fd5b50506006805460ff191681179055600080546002546008546009546040805163a9059cbb60e01b81526001600160a01b03948516600482015292909103602483015251919092169263a9059cbb92604480820193602093909283900390910190829087803b15801561094757600080fd5b505af115801561095b573d6000803e3d6000fd5b505050506040513d602081101561097157600080fd5b5050600080546001546008546040805163a9059cbb60e01b81526001600160a01b039384166004820152602481019290925251919092169263a9059cbb92604480820193602093909283900390910190829087803b1580156109d257600080fd5b505af11580156109e6573d6000803e3d6000fd5b505050506040513d60208110156109fc57600080fd5b50504260148190556012556000601355565b60135481565b600d805460408051602060026001851615610100026000190190941693909304601f810184900484028201840190925281815292918301828280156106275780601f106105fc57610100808354040283529160200191610627565b600260065460ff166007811115610a8257fe5b14610ac2576040805162461bcd60e51b81526020600482015260146024820152600080516020611619833981519152604482015290519081900360640190fd5b600054604080516370a0823160e01b815232600482015290516001600160a01b03909216916370a0823191602480820192602092909190829003018186803b158015610b0d57600080fd5b505afa158015610b21573d6000803e3d6000fd5b505050506040513d6020811015610b3757600080fd5b5051600954606490041115610b7d5760405162461bcd60e51b81526004018080602001828103825260358152602001806115e46035913960400191505060405180910390fd5b60008054600954604080516323b872dd60e01b8152326004820152306024820152606492839004604482015290516001600160a01b03909316936323b872dd93828401936020939192918390030190829087803b158015610bdd57600080fd5b505af1158015610bf1573d6000803e3d6000fd5b505050506040513d6020811015610c0757600080fd5b50506006805460ff191660031790556009546064900460105560006011556249d40042908101601255621275008101601355601455565b4260135410610c7e5760405162461bcd60e51b81526004018080602001828103825260338152602001806115b16033913960400191505060405180910390fd5b60035b60065460ff166007811115610c9257fe5b14610cd2576040805162461bcd60e51b81526020600482015260146024820152600080516020611619833981519152604482015290519081900360640190fd5b6006805460ff19169055600080546002546008546010546011546040805163a9059cbb60e01b81526001600160a01b0395861660048201529190920192909203602483015251919092169263a9059cbb92604480820193602093909283900390910190829087803b158015610d4657600080fd5b505af1158015610d5a573d6000803e3d6000fd5b505050506040513d6020811015610d7057600080fd5b5050600080546001546008546040805163a9059cbb60e01b81526001600160a01b039384166004820152602481019290925251919092169263a9059cbb92604480820193602093909283900390910190829087803b158015610dd157600080fd5b505af1158015610de5573d6000803e3d6000fd5b505050506040513d6020811015610dfb57600080fd5b50504260128190556000601355601455565b4260125410610e4d5760405162461bcd60e51b81526004018080602001828103825260368152602001806115416036913960400191505060405180910390fd5b6005610c81565b6003546001600160a01b031681565b600c805460408051602060026001851615610100026000190190941693909304601f810184900484028201840190925281815292918301828280156106275780601f106105fc57610100808354040283529160200191610627565b60065460ff1681565b6001546001600160a01b031681565b60095481565b60125481565b6006805460ff19169055600080546002546010546040805163a9059cbb60e01b81526001600160a01b039384166004820152602481019290925251919092169263a9059cbb92604480820193602093909283900390910190829087803b158015610dd157600080fd5b60085481565b600460065460ff166007811115610f6457fe5b14610fa4576040805162461bcd60e51b81526020600482015260146024820152600080516020611619833981519152604482015290519081900360640190fd5b8015610fcb576015805460ff1990811660011790915560068054909116600517905561110d565b6015805460ff19908116909155600680549091169055600080546003546008546010546011546040805163a9059cbb60e01b81526001600160a01b0395861660048201529190920192909203602483015251919092169263a9059cbb92604480820193602093909283900390910190829087803b15801561104b57600080fd5b505af115801561105f573d6000803e3d6000fd5b505050506040513d602081101561107557600080fd5b5050600080546001546008546040805163a9059cbb60e01b81526001600160a01b039384166004820152602481019290925251919092169263a9059cbb92604480820193602093909283900390910190829087803b1580156110d657600080fd5b505af11580156110ea573d6000803e3d6000fd5b505050506040513d602081101561110057600080fd5b5050600060128190556013555b5042601455565b600b5481565b60105481565b6000546001600160a01b031681565b600360065460ff16600781111561114257fe5b14611182576040805162461bcd60e51b81526020600482015260146024820152600080516020611619833981519152604482015290519081900360640190fd5b6009805460649102600054604080516370a0823160e01b8152326004820152905193909204926001600160a01b03909116916370a08231916024808301926020929190829003018186803b1580156111d957600080fd5b505afa1580156111ed573d6000803e3d6000fd5b505050506040513d602081101561120357600080fd5b505110156112425760405162461bcd60e51b815260040180806020018281038252603a815260200180611577603a913960400191505060405180910390fd5b6000805460098054604080516323b872dd60e01b81523260048201523060248201526064929093028290046044840152516001600160a01b03909316936323b872dd938383019360209391929083900390910190829087803b1580156112a757600080fd5b505af11580156112bb573d6000803e3d6000fd5b505050506040513d60208110156112d157600080fd5b50506006805460ff1916600417905560098054606491020460115542601455565b600060065460ff16600781111561130557fe5b14611345576040805162461bcd60e51b81526020600482015260146024820152600080516020611619833981519152604482015290519081900360640190fd5b6006805460ff19166001179055600380546001600160a01b0385166001600160a01b0319909116179055815161138290600d9060208501906114a5565b50600a55505042601455565b6005805460408051602060026001851615610100026000190190941693909304601f810184900484028201840190925281815292918301828280156106275780601f106105fc57610100808354040283529160200191610627565b6004546001600160a01b031681565b600a5481565b600f5481565b600160065460ff16600781111561141757fe5b14611457576040805162461bcd60e51b81526020600482015260146024820152600080516020611619833981519152604482015290519081900360640190fd5b6006805460ff1916905542601255600060135560408051808201909152600880825267302530253025302560c01b602090920191825261149991600d916114a5565b506000600a5542601455565b828054600181600116156101000203166002900490600052602060002090601f016020900481019282601f106114e657805160ff1916838001178555611513565b82800160010185558215611513579182015b828111156115135782518255916020019190600101906114f8565b5061151f929150611523565b5090565b61153d91905b8082111561151f5760008155600101611529565b9056fe4f6e6c7920706f737420446561646c696e65207769746864726177206166746572207472616e73616374696f6e20646561646c696e654275796572206e6565647320746f206465706f736974206265747765656e2031302520616e64203130302520746f2065786563757465204f54504f6e6c792073656c6c65722063616e207769746864726177206166746572207472616e73616374696f6e20646561646c696e6557616c6c65742042616c616e6365206973206c6573736572207468616e207265717569726564206465706f73697420616d6f756e7457726f6e6720636f6e7472616374207374617465000000000000000000000000a265627a7a72315820a7402f1a08887cc70356ce51cb73e8a26cd79b61960733397b2a08688808645164736f6c634300050b00325072696365206e6565647320746f206265206d6f7265207468616e204167656e742066656521696e646578206f7574206f662072616e67650000000000000000000000000000ef61bc92c100a9fcc99cfb6cba93c917763e0eaf8be97d45a2a4ebdbd58b8909a265627a7a723158202aa36696ec986a2f0ca5271b53e5d2c1108d8c29ef150ae5c022d71237cc4bdd64736f6c634300050b0032",
  "linkReferences": {},
  "deployedLinkReferences": {}
}