{
  "_format": "hh-sol-artifact-1",
  "contractName": "Factory",
  "sourceName": "contracts/Factory.sol",
  "abi": [
    {
      "constant": false,
      "inputs": [
        {
          "internalType": "uint256",
          "name": "index",
          "type": "uint256"
        }
      ],
      "name": "sellerSignContract",
      "outputs": [],
      "payable": true,
      "stateMutability": "payable",
      "type": "function"
    },
    {
      "constant": true,
      "inputs": [
        {
          "internalType": "address",
          "name": "indexadd",
          "type": "address"
        }
      ],
      "name": "getPropFromLawyer",
      "outputs": [
        {
          "internalType": "uint256[]",
          "name": "",
          "type": "uint256[]"
        }
      ],
      "payable": false,
      "stateMutability": "view",
      "type": "function"
    },
    {
      "constant": true,
      "inputs": [
        {
          "internalType": "uint256",
          "name": "index",
          "type": "uint256"
        }
      ],
      "name": "getInstancePrice",
      "outputs": [
        {
          "internalType": "uint256",
          "name": "",
          "type": "uint256"
        }
      ],
      "payable": false,
      "stateMutability": "view",
      "type": "function"
    },
    {
      "constant": true,
      "inputs": [
        {
          "internalType": "uint256",
          "name": "index",
          "type": "uint256"
        }
      ],
      "name": "getInstanceProptype",
      "outputs": [
        {
          "internalType": "uint256",
          "name": "",
          "type": "uint256"
        }
      ],
      "payable": false,
      "stateMutability": "view",
      "type": "function"
    },
    {
      "constant": true,
      "inputs": [
        {
          "internalType": "uint256",
          "name": "index",
          "type": "uint256"
        }
      ],
      "name": "getContractBalance",
      "outputs": [
        {
          "internalType": "uint256",
          "name": "",
          "type": "uint256"
        }
      ],
      "payable": false,
      "stateMutability": "view",
      "type": "function"
    },
    {
      "constant": true,
      "inputs": [
        {
          "internalType": "uint256",
          "name": "index",
          "type": "uint256"
        }
      ],
      "name": "getwalletbalance",
      "outputs": [
        {
          "internalType": "uint256",
          "name": "",
          "type": "uint256"
        }
      ],
      "payable": false,
      "stateMutability": "view",
      "type": "function"
    },
    {
      "constant": true,
      "inputs": [
        {
          "internalType": "uint256",
          "name": "state",
          "type": "uint256"
        }
      ],
      "name": "getPropFromInvState",
      "outputs": [
        {
          "internalType": "uint256[]",
          "name": "",
          "type": "uint256[]"
        }
      ],
      "payable": false,
      "stateMutability": "view",
      "type": "function"
    },
    {
      "constant": true,
      "inputs": [
        {
          "internalType": "address",
          "name": "indexadd",
          "type": "address"
        }
      ],
      "name": "getPropFromBuyer",
      "outputs": [
        {
          "internalType": "uint256[]",
          "name": "",
          "type": "uint256[]"
        }
      ],
      "payable": false,
      "stateMutability": "view",
      "type": "function"
    },
    {
      "constant": true,
      "inputs": [
        {
          "internalType": "uint256",
          "name": "state",
          "type": "uint256"
        }
      ],
      "name": "getPropFromState",
      "outputs": [
        {
          "internalType": "uint256[]",
          "name": "",
          "type": "uint256[]"
        }
      ],
      "payable": false,
      "stateMutability": "view",
      "type": "function"
    },
    {
      "constant": true,
      "inputs": [
        {
          "internalType": "uint256",
          "name": "index",
          "type": "uint256"
        }
      ],
      "name": "getInstanceBuyerAddress",
      "outputs": [
        {
          "internalType": "address",
          "name": "",
          "type": "address"
        }
      ],
      "payable": false,
      "stateMutability": "view",
      "type": "function"
    },
    {
      "constant": true,
      "inputs": [
        {
          "internalType": "uint256",
          "name": "index",
          "type": "uint256"
        }
      ],
      "name": "getInstanceSellerAddress",
      "outputs": [
        {
          "internalType": "address",
          "name": "",
          "type": "address"
        }
      ],
      "payable": false,
      "stateMutability": "view",
      "type": "function"
    },
    {
      "constant": false,
      "inputs": [
        {
          "internalType": "uint256",
          "name": "index",
          "type": "uint256"
        },
        {
          "internalType": "string",
          "name": "blkoffer",
          "type": "string"
        }
      ],
      "name": "buyerShowsInterest",
      "outputs": [],
      "payable": true,
      "stateMutability": "payable",
      "type": "function"
    },
    {
      "constant": true,
      "inputs": [
        {
          "internalType": "uint256",
          "name": "index",
          "type": "uint256"
        }
      ],
      "name": "getInstanceState",
      "outputs": [
        {
          "internalType": "uint256",
          "name": "",
          "type": "uint256"
        }
      ],
      "payable": false,
      "stateMutability": "view",
      "type": "function"
    },
    {
      "constant": true,
      "inputs": [
        {
          "internalType": "address",
          "name": "indexadd",
          "type": "address"
        }
      ],
      "name": "getPropFromSeller",
      "outputs": [
        {
          "internalType": "uint256[]",
          "name": "",
          "type": "uint256[]"
        }
      ],
      "payable": false,
      "stateMutability": "view",
      "type": "function"
    },
    {
      "constant": true,
      "inputs": [
        {
          "internalType": "uint256",
          "name": "index",
          "type": "uint256"
        }
      ],
      "name": "getInstanceZIP",
      "outputs": [
        {
          "internalType": "string",
          "name": "",
          "type": "string"
        }
      ],
      "payable": false,
      "stateMutability": "view",
      "type": "function"
    },
    {
      "constant": true,
      "inputs": [
        {
          "internalType": "uint256",
          "name": "index",
          "type": "uint256"
        }
      ],
      "name": "getOTPDeadline",
      "outputs": [
        {
          "internalType": "uint256",
          "name": "",
          "type": "uint256"
        }
      ],
      "payable": false,
      "stateMutability": "view",
      "type": "function"
    },
    {
      "constant": false,
      "inputs": [
        {
          "internalType": "uint256",
          "name": "index",
          "type": "uint256"
        }
      ],
      "name": "buyerFinalizeTransaction",
      "outputs": [],
      "payable": true,
      "stateMutability": "payable",
      "type": "function"
    },
    {
      "constant": false,
      "inputs": [
        {
          "internalType": "uint256",
          "name": "index",
          "type": "uint256"
        }
      ],
      "name": "anyWithdrawPostFinalDeadline",
      "outputs": [],
      "payable": true,
      "stateMutability": "payable",
      "type": "function"
    },
    {
      "constant": false,
      "inputs": [
        {
          "internalType": "uint256",
          "name": "index",
          "type": "uint256"
        }
      ],
      "name": "SellerWithdrawPostExpiry",
      "outputs": [],
      "payable": true,
      "stateMutability": "payable",
      "type": "function"
    },
    {
      "constant": true,
      "inputs": [
        {
          "internalType": "uint256",
          "name": "index",
          "type": "uint256"
        }
      ],
      "name": "getLastOpsTime",
      "outputs": [
        {
          "internalType": "uint256",
          "name": "",
          "type": "uint256"
        }
      ],
      "payable": false,
      "stateMutability": "view",
      "type": "function"
    },
    {
      "constant": true,
      "inputs": [
        {
          "internalType": "uint256",
          "name": "index",
          "type": "uint256"
        }
      ],
      "name": "getInstanceAgentFee",
      "outputs": [
        {
          "internalType": "uint256",
          "name": "",
          "type": "uint256"
        }
      ],
      "payable": false,
      "stateMutability": "view",
      "type": "function"
    },
    {
      "constant": true,
      "inputs": [
        {
          "internalType": "uint256",
          "name": "proptype",
          "type": "uint256"
        }
      ],
      "name": "getPropFromPropType",
      "outputs": [
        {
          "internalType": "uint256[]",
          "name": "",
          "type": "uint256[]"
        }
      ],
      "payable": false,
      "stateMutability": "view",
      "type": "function"
    },
    {
      "constant": true,
      "inputs": [
        {
          "internalType": "uint256",
          "name": "index",
          "type": "uint256"
        }
      ],
      "name": "getInstanceBlockentry",
      "outputs": [
        {
          "internalType": "string",
          "name": "",
          "type": "string"
        }
      ],
      "payable": false,
      "stateMutability": "view",
      "type": "function"
    },
    {
      "constant": false,
      "inputs": [
        {
          "internalType": "uint256",
          "name": "index",
          "type": "uint256"
        }
      ],
      "name": "buyerSignContractAndPayDeposit",
      "outputs": [],
      "payable": true,
      "stateMutability": "payable",
      "type": "function"
    },
    {
      "constant": false,
      "inputs": [
        {
          "internalType": "uint256",
          "name": "index",
          "type": "uint256"
        }
      ],
      "name": "SellerRejectBuyer",
      "outputs": [],
      "payable": true,
      "stateMutability": "payable",
      "type": "function"
    },
    {
      "constant": true,
      "inputs": [
        {
          "internalType": "uint256",
          "name": "index",
          "type": "uint256"
        }
      ],
      "name": "getFinalPaymentDeadline",
      "outputs": [
        {
          "internalType": "uint256",
          "name": "",
          "type": "uint256"
        }
      ],
      "payable": false,
      "stateMutability": "view",
      "type": "function"
    },
    {
      "constant": true,
      "inputs": [
        {
          "internalType": "uint256",
          "name": "index",
          "type": "uint256"
        }
      ],
      "name": "getInstanceAcco",
      "outputs": [
        {
          "internalType": "uint256",
          "name": "",
          "type": "uint256"
        }
      ],
      "payable": false,
      "stateMutability": "view",
      "type": "function"
    },
    {
      "constant": false,
      "inputs": [
        {
          "internalType": "string",
          "name": "_address",
          "type": "string"
        },
        {
          "internalType": "string",
          "name": "_zip",
          "type": "string"
        },
        {
          "internalType": "uint256",
          "name": "_realtorFee",
          "type": "uint256"
        },
        {
          "internalType": "uint256",
          "name": "_price",
          "type": "uint256"
        },
        {
          "internalType": "uint256",
          "name": "_proptype",
          "type": "uint256"
        },
        {
          "internalType": "uint256",
          "name": "_acco",
          "type": "uint256"
        },
        {
          "internalType": "uint256",
          "name": "_proparea",
          "type": "uint256"
        },
        {
          "internalType": "string",
          "name": "_blockentry",
          "type": "string"
        },
        {
          "internalType": "address payable",
          "name": "_Agent",
          "type": "address"
        }
      ],
      "name": "create",
      "outputs": [
        {
          "internalType": "contract HomeTransaction",
          "name": "homeTransaction",
          "type": "address"
        }
      ],
      "payable": false,
      "stateMutability": "nonpayable",
      "type": "function"
    },
    {
      "constant": true,
      "inputs": [],
      "name": "getInstanceCount",
      "outputs": [
        {
          "internalType": "uint256",
          "name": "count",
          "type": "uint256"
        }
      ],
      "payable": false,
      "stateMutability": "view",
      "type": "function"
    },
    {
      "constant": true,
      "inputs": [
        {
          "internalType": "uint256",
          "name": "index",
          "type": "uint256"
        }
      ],
      "name": "getContractAddress",
      "outputs": [
        {
          "internalType": "address",
          "name": "",
          "type": "address"
        }
      ],
      "payable": false,
      "stateMutability": "view",
      "type": "function"
    },
    {
      "constant": true,
      "inputs": [
        {
          "internalType": "uint256",
          "name": "index",
          "type": "uint256"
        }
      ],
      "name": "getInstanceBlockoffer",
      "outputs": [
        {
          "internalType": "string",
          "name": "",
          "type": "string"
        }
      ],
      "payable": false,
      "stateMutability": "view",
      "type": "function"
    },
    {
      "constant": true,
      "inputs": [
        {
          "internalType": "uint256",
          "name": "index",
          "type": "uint256"
        }
      ],
      "name": "getContractAllowance",
      "outputs": [
        {
          "internalType": "uint256",
          "name": "",
          "type": "uint256"
        }
      ],
      "payable": false,
      "stateMutability": "view",
      "type": "function"
    },
    {
      "constant": false,
      "inputs": [
        {
          "internalType": "uint256",
          "name": "index",
          "type": "uint256"
        }
      ],
      "name": "anyWithdrawFromTransaction",
      "outputs": [],
      "payable": true,
      "stateMutability": "payable",
      "type": "function"
    },
    {
      "constant": true,
      "inputs": [
        {
          "internalType": "uint256",
          "name": "index",
          "type": "uint256"
        }
      ],
      "name": "getInstanceAgentAddress",
      "outputs": [
        {
          "internalType": "address",
          "name": "",
          "type": "address"
        }
      ],
      "payable": false,
      "stateMutability": "view",
      "type": "function"
    },
    {
      "constant": false,
      "inputs": [
        {
          "internalType": "uint256",
          "name": "index",
          "type": "uint256"
        }
      ],
      "name": "buyerPaysOTPAmount",
      "outputs": [],
      "payable": true,
      "stateMutability": "payable",
      "type": "function"
    },
    {
      "constant": true,
      "inputs": [],
      "name": "getInstances",
      "outputs": [
        {
          "internalType": "contract HomeTransaction[]",
          "name": "instances",
          "type": "address[]"
        }
      ],
      "payable": false,
      "stateMutability": "view",
      "type": "function"
    },
    {
      "constant": true,
      "inputs": [
        {
          "internalType": "uint256",
          "name": "index",
          "type": "uint256"
        }
      ],
      "name": "getInstancePropArea",
      "outputs": [
        {
          "internalType": "uint256",
          "name": "",
          "type": "uint256"
        }
      ],
      "payable": false,
      "stateMutability": "view",
      "type": "function"
    },
    {
      "constant": true,
      "inputs": [
        {
          "internalType": "uint256",
          "name": "index",
          "type": "uint256"
        }
      ],
      "name": "getInstanceAddress",
      "outputs": [
        {
          "internalType": "string",
          "name": "",
          "type": "string"
        }
      ],
      "payable": false,
      "stateMutability": "view",
      "type": "function"
    },
    {
      "constant": true,
      "inputs": [
        {
          "internalType": "uint256",
          "name": "index",
          "type": "uint256"
        }
      ],
      "name": "getInstance",
      "outputs": [
        {
          "internalType": "contract HomeTransaction",
          "name": "instance",
          "type": "address"
        }
      ],
      "payable": false,
      "stateMutability": "view",
      "type": "function"
    },
    {
      "constant": false,
      "inputs": [
        {
          "internalType": "uint256",
          "name": "index",
          "type": "uint256"
        },
        {
          "internalType": "bool",
          "name": "accept",
          "type": "bool"
        }
      ],
      "name": "AgentReviewedClosingConditions",
      "outputs": [],
      "payable": true,
      "stateMutability": "payable",
      "type": "function"
    },
    {
      "inputs": [
        {
          "internalType": "string",
          "name": "_greeting",
          "type": "string"
        }
      ],
      "payable": false,
      "stateMutability": "nonpayable",
      "type": "constructor"
    },
    {
      "anonymous": false,
      "inputs": [
        {
          "indexed": true,
          "internalType": "address",
          "name": "_from",
          "type": "address"
        },
        {
          "indexed": false,
          "internalType": "uint256",
          "name": "_index",
          "type": "uint256"
        },
        {
          "indexed": false,
          "internalType": "uint256",
          "name": "_value",
          "type": "uint256"
        }
      ],
      "name": "ShowIterest",
      "type": "event"
    }
  ],
  "bytecode": "0x60806040523480156200001157600080fd5b506040516200469838038062004698833981810160405260208110156200003757600080fd5b81019080805160405193929190846401000000008211156200005857600080fd5b9083019060208201858111156200006e57600080fd5b82516401000000008111828201881017156200008957600080fd5b82525081516020918201929091019080838360005b83811015620000b85781810151838201526020016200009e565b50505050905090810190601f168015620000e65780820380516001836020036101000a031916815260200191505b506040525050505061459a80620000fe6000396000f3fe608060405260043610620002715760003560e01c80635d329278116200014b578063bbe2bd2211620000bb578063d35fdd791162000079578063d35fdd791462000b93578063dbff9c8a1462000bab578063e9bdc18a1462000bd9578063ebd348de1462000c07578063f828fa951462000c355762000271565b8063bbe2bd221462000ac9578063c6389f6b1462000af7578063c6f56def1462000b25578063c903b45c1462000b45578063c9e3bfff1462000b735762000271565b8063a45b694b1162000109578063a45b694b1462000838578063a5f7597f1462000866578063a81be58d1462000894578063ae34325c1462000a83578063aefa7d981462000a9b5762000271565b80635d329278146200076e5780637e6bc31d146200079c57806384d596da14620007ca5780639938a3c714620007f85780639de665bb14620008185762000271565b80631c22cc4a11620001e75780634a31d30611620001a55780634a31d30614620006b25780634e9dcb5814620006e057806352d21087146200070057806354d568871462000720578063595a45fe14620007405762000271565b80631c22cc4a14620004c85780632afdd4de14620004f657806334be341914620005a75780633df25f2414620005d55780633ed54a79146200060c5762000271565b8063086ccea31162000235578063086ccea314620003bd5780630954225714620003eb5780630a180b8d146200041957806318299b9114620004505780631a952acf146200047e5762000271565b8062ff4b3d14620002765780630347784f1462000298578063035211c61462000321578063052df04c146200036157806305d63070146200038f575b600080fd5b62000296600480360360208110156200028e57600080fd5b503562000c5d565b005b348015620002a557600080fd5b50620002cf60048036036020811015620002be57600080fd5b50356001600160a01b031662000d47565b60408051602080825283518183015283519192839290830191858101910280838360005b838110156200030d578181015183820152602001620002f3565b505050509050019250505060405180910390f35b3480156200032e57600080fd5b506200034f600480360360208110156200034757600080fd5b503562000ddc565b60408051918252519081900360200190f35b3480156200036e57600080fd5b506200034f600480360360208110156200038757600080fd5b503562000eb4565b3480156200039c57600080fd5b506200034f60048036036020811015620003b557600080fd5b503562000f57565b348015620003ca57600080fd5b506200034f60048036036020811015620003e357600080fd5b503562001043565b348015620003f857600080fd5b50620002cf600480360360208110156200041157600080fd5b503562001118565b3480156200042657600080fd5b50620002cf600480360360208110156200043f57600080fd5b50356001600160a01b031662001193565b3480156200045d57600080fd5b50620002cf600480360360208110156200047657600080fd5b503562001221565b3480156200048b57600080fd5b50620004ac60048036036020811015620004a457600080fd5b50356200129d565b604080516001600160a01b039092168252519081900360200190f35b348015620004d557600080fd5b50620004ac60048036036020811015620004ee57600080fd5b503562001340565b62000296600480360360408110156200050e57600080fd5b81359190810190604081016020820135600160201b8111156200053057600080fd5b8201836020820111156200054357600080fd5b803590602001918460018302840111600160201b831117156200056557600080fd5b91908080601f016020809104026020016040519081016040528093929190818152602001838380828437600092019190915250929550620013e3945050505050565b348015620005b457600080fd5b506200034f60048036036020811015620005cd57600080fd5b50356200154c565b348015620005e257600080fd5b50620002cf60048036036020811015620005fb57600080fd5b50356001600160a01b031662001630565b3480156200061957600080fd5b506200063a600480360360208110156200063257600080fd5b5035620016be565b6040805160208082528351818301528351919283929083019185019080838360005b83811015620006765781810151838201526020016200065c565b50505050905090810190601f168015620006a45780820380516001836020036101000a031916815260200191505b509250505060405180910390f35b348015620006bf57600080fd5b506200034f60048036036020811015620006d857600080fd5b50356200185a565b6200029660048036036020811015620006f857600080fd5b5035620018fd565b62000296600480360360208110156200071857600080fd5b5035620019e7565b62000296600480360360208110156200073857600080fd5b503562001ad1565b3480156200074d57600080fd5b506200034f600480360360208110156200076657600080fd5b503562001b71565b3480156200077b57600080fd5b506200034f600480360360208110156200079457600080fd5b503562001c14565b348015620007a957600080fd5b50620002cf60048036036020811015620007c257600080fd5b503562001cb7565b348015620007d757600080fd5b506200063a60048036036020811015620007f057600080fd5b503562001d33565b62000296600480360360208110156200081057600080fd5b503562001dd6565b62000296600480360360208110156200083057600080fd5b503562001ec0565b3480156200084557600080fd5b506200034f600480360360208110156200085e57600080fd5b503562001f64565b3480156200087357600080fd5b506200034f600480360360208110156200088c57600080fd5b503562002007565b348015620008a157600080fd5b50620004ac6004803603610120811015620008bb57600080fd5b810190602081018135600160201b811115620008d657600080fd5b820183602082011115620008e957600080fd5b803590602001918460018302840111600160201b831117156200090b57600080fd5b91908080601f0160208091040260200160405190810160405280939291908181526020018383808284376000920191909152509295949360208101935035915050600160201b8111156200095e57600080fd5b8201836020820111156200097157600080fd5b803590602001918460018302840111600160201b831117156200099357600080fd5b91908080601f016020809104026020016040519081016040528093929190818152602001838380828437600092019190915250929584359560208601359560408101359550606081013594506080810135935060c081019060a00135600160201b81111562000a0157600080fd5b82018360208201111562000a1457600080fd5b803590602001918460018302840111600160201b8311171562000a3657600080fd5b91908080601f016020809104026020016040519081016040528093929190818152602001838380828437600092019190915250929550505090356001600160a01b03169150620020aa9050565b34801562000a9057600080fd5b506200034f620022eb565b34801562000aa857600080fd5b50620004ac6004803603602081101562000ac157600080fd5b5035620022f1565b34801562000ad657600080fd5b506200063a6004803603602081101562000aef57600080fd5b50356200234f565b34801562000b0457600080fd5b506200034f6004803603602081101562000b1d57600080fd5b5035620023f2565b620002966004803603602081101562000b3d57600080fd5b5035620024f8565b34801562000b5257600080fd5b50620004ac6004803603602081101562000b6b57600080fd5b503562002599565b620002966004803603602081101562000b8b57600080fd5b50356200263c565b34801562000ba057600080fd5b50620002cf62002726565b34801562000bb857600080fd5b506200034f6004803603602081101562000bd157600080fd5b50356200278a565b34801562000be657600080fd5b506200063a6004803603602081101562000bff57600080fd5b50356200282d565b34801562000c1457600080fd5b50620004ac6004803603602081101562000c2d57600080fd5b5035620028d0565b620002966004803603604081101562000c4d57600080fd5b5080359060200135151562002940565b600054811062000ca3576040805162461bcd60e51b8152602060048201526012602482015260008051602062004526833981519152604482015290519081900360640190fd5b600080828154811062000cb257fe5b6000918252602082200154604080516318be633f60e01b815290516001600160a01b03909216935083926318be633f9260048084019382900301818387803b15801562000cfe57600080fd5b505af115801562000d13573d6000803e3d6000fd5b5050604080518581526002602082015281513394506000805160206200454683398151915293509081900390910190a25050565b60005460408051828152602080840282010190915260609190829082801562000d7a578160200160208202803883390190505b50905060005b8281101562000dd457846001600160a01b031662000d9e8262002599565b6001600160a01b03161462000dcb578060010182828151811062000dbe57fe5b6020026020010181815250505b60010162000d80565b509392505050565b60008054821062000e23576040805162461bcd60e51b8152602060048201526012602482015260008051602062004526833981519152604482015290519081900360640190fd5b600080838154811062000e3257fe5b600091825260209182902001546040805163501ad8ff60e11b815290516001600160a01b039092169350839263a035b1fe92600480840193829003018186803b15801562000e7f57600080fd5b505afa15801562000e94573d6000803e3d6000fd5b505050506040513d602081101562000eab57600080fd5b50519392505050565b60008054821062000efb576040805162461bcd60e51b8152602060048201526012602482015260008051602062004526833981519152604482015290519081900360640190fd5b600080838154811062000f0a57fe5b600091825260209182902001546040805163ccd3c77560e01b815290516001600160a01b039092169350839263ccd3c77592600480840193829003018186803b15801562000e7f57600080fd5b6000806000838154811062000f6857fe5b600091825260209182902001546040805163d21220a760e01b815290516001600160a01b039092169350839263d21220a792600480840193829003018186803b15801562000fb557600080fd5b505afa15801562000fca573d6000803e3d6000fd5b505050506040513d602081101562000fe157600080fd5b50516001600160a01b03166370a0823162000ffc85620022f1565b6040518263ffffffff1660e01b815260040180826001600160a01b03166001600160a01b0316815260200191505060206040518083038186803b15801562000e7f57600080fd5b600080600083815481106200105457fe5b600091825260209182902001546040805163d21220a760e01b815290516001600160a01b039092169350839263d21220a792600480840193829003018186803b158015620010a157600080fd5b505afa158015620010b6573d6000803e3d6000fd5b505050506040513d6020811015620010cd57600080fd5b5051604080516370a0823160e01b815232600482015290516001600160a01b03909216916370a0823191602480820192602092909190829003018186803b15801562000e7f57600080fd5b6000546040805182815260208084028201019091526060919082908280156200114b578160200160208202803883390190505b50905060005b8281101562000dd4578462001166826200154c565b146200118a57806001018282815181106200117d57fe5b6020026020010181815250505b60010162001151565b600054604080518281526020808402820101909152606091908290828015620011c6578160200160208202803883390190505b50905060005b8281101562000dd457846001600160a01b0316620011ea826200129d565b6001600160a01b031614156200121857806001018282815181106200120b57fe5b6020026020010181815250505b600101620011cc565b60005460408051828152602080840282010190915260609190829082801562001254578160200160208202803883390190505b50905060005b8281101562000dd457846200126f826200154c565b14156200129457806001018282815181106200128757fe5b6020026020010181815250505b6001016200125a565b600080548210620012e4576040805162461bcd60e51b8152602060048201526012602482015260008051602062004526833981519152604482015290519081900360640190fd5b6000808381548110620012f357fe5b60009182526020918290200154604080516338a86c5760e11b815290516001600160a01b0390921693508392637150d8ae92600480840193829003018186803b15801562000e7f57600080fd5b60008054821062001387576040805162461bcd60e51b8152602060048201526012602482015260008051602062004526833981519152604482015290519081900360640190fd5b60008083815481106200139657fe5b60009182526020918290200154604080516308551a5360e01b815290516001600160a01b03909216935083926308551a5392600480840193829003018186803b15801562000e7f57600080fd5b600054821062001429576040805162461bcd60e51b8152602060048201526012602482015260008051602062004526833981519152604482015290519081900360640190fd5b60008083815481106200143857fe5b600091825260208083209091015460408051631b053e1d60e21b81523360048201818152602483019384528851604484015288516001600160a01b0390951697508796636c14f8749692958a95929492936064909301928601918190849084905b83811015620014b357818101518382015260200162001499565b50505050905090810190601f168015620014e15780820380516001836020036101000a031916815260200191505b509350505050600060405180830381600087803b1580156200150257600080fd5b505af115801562001517573d6000803e3d6000fd5b5050604080518681526001602082015281513394506000805160206200454683398151915293509081900390910190a2505050565b60008054821062001593576040805162461bcd60e51b8152602060048201526012602482015260008051602062004526833981519152604482015290519081900360640190fd5b6000808381548110620015a257fe5b600091825260209182902001546040805163042904f760e51b815290516001600160a01b03909216935083926385209ee092600480840193829003018186803b158015620015ef57600080fd5b505afa15801562001604573d6000803e3d6000fd5b505050506040513d60208110156200161b57600080fd5b505160078111156200162957fe5b9392505050565b60005460408051828152602080840282010190915260609190829082801562001663578160200160208202803883390190505b50905060005b8281101562000dd457846001600160a01b0316620016878262001340565b6001600160a01b03161415620016b55780600101828281518110620016a857fe5b6020026020010181815250505b60010162001669565b600054606090821062001707576040805162461bcd60e51b8152602060048201526012602482015260008051602062004526833981519152604482015290519081900360640190fd5b60008083815481106200171657fe5b6000918252602082200154604080516291905560e01b815290516001600160a01b03909216935083926291905592600480840193829003018186803b1580156200175f57600080fd5b505afa15801562001774573d6000803e3d6000fd5b505050506040513d6000823e601f3d908101601f1916820160405260208110156200179e57600080fd5b8101908080516040519392919084600160201b821115620017be57600080fd5b908301906020820185811115620017d457600080fd5b8251600160201b811182820188101715620017ee57600080fd5b82525081516020918201929091019080838360005b838110156200181d57818101518382015260200162001803565b50505050905090810190601f1680156200184b5780820380516001836020036101000a031916815260200191505b50604052505050915050919050565b600080548210620018a1576040805162461bcd60e51b8152602060048201526012602482015260008051602062004526833981519152604482015290519081900360640190fd5b6000808381548110620018b057fe5b60009182526020918290200154604080516316498c1560e11b815290516001600160a01b0390921693508392632c93182a92600480840193829003018186803b15801562000e7f57600080fd5b600054811062001943576040805162461bcd60e51b8152602060048201526012602482015260008051602062004526833981519152604482015290519081900360640190fd5b60008082815481106200195257fe5b600091825260208220015460408051632323f8f560e01b815290516001600160a01b0390921693508392632323f8f59260048084019382900301818387803b1580156200199e57600080fd5b505af1158015620019b3573d6000803e3d6000fd5b5050604080518581526006602082015281513394506000805160206200454683398151915293509081900390910190a25050565b600054811062001a2d576040805162461bcd60e51b8152602060048201526012602482015260008051602062004526833981519152604482015290519081900360640190fd5b600080828154811062001a3c57fe5b600091825260208220015460408051630d437d9160e31b815290516001600160a01b0390921693508392636a1bec889260048084019382900301818387803b15801562001a8857600080fd5b505af115801562001a9d573d6000803e3d6000fd5b5050604080518581526000602082015281513394506000805160206200454683398151915293509081900390910190a25050565b600054811062001b17576040805162461bcd60e51b8152602060048201526012602482015260008051602062004526833981519152604482015290519081900360640190fd5b600080828154811062001b2657fe5b60009182526020822001546040805162cea2c360e71b815290516001600160a01b039092169350839263675161809260048084019382900301818387803b15801562001a8857600080fd5b60008054821062001bb8576040805162461bcd60e51b8152602060048201526012602482015260008051602062004526833981519152604482015290519081900360640190fd5b600080838154811062001bc757fe5b60009182526020918290200154604080516316d43a9760e01b815290516001600160a01b03909216935083926316d43a9792600480840193829003018186803b15801562000e7f57600080fd5b60008054821062001c5b576040805162461bcd60e51b8152602060048201526012602482015260008051602062004526833981519152604482015290519081900360640190fd5b600080838154811062001c6a57fe5b600091825260209182902001546040805163bd38347360e01b815290516001600160a01b039092169350839263bd38347392600480840193829003018186803b15801562000e7f57600080fd5b60005460408051828152602080840282010190915260609190829082801562001cea578160200160208202803883390190505b50905060005b8281101562000dd4578462001d05826200154c565b141562001d2a578060010182828151811062001d1d57fe5b6020026020010181815250505b60010162001cf0565b600054606090821062001d7c576040805162461bcd60e51b8152602060048201526012602482015260008051602062004526833981519152604482015290519081900360640190fd5b600080838154811062001d8b57fe5b600091825260208220015460408051633adf668d60e11b815290516001600160a01b03909216935083926375becd1a92600480840193829003018186803b1580156200175f57600080fd5b600054811062001e1c576040805162461bcd60e51b8152602060048201526012602482015260008051602062004526833981519152604482015290519081900360640190fd5b600080828154811062001e2b57fe5b600091825260208220015460408051634ed523e960e01b815290516001600160a01b0390921693508392634ed523e99260048084019382900301818387803b15801562001e7757600080fd5b505af115801562001e8c573d6000803e3d6000fd5b5050604080518581526003602082015281513394506000805160206200454683398151915293509081900390910190a25050565b600054811062001f06576040805162461bcd60e51b8152602060048201526012602482015260008051602062004526833981519152604482015290519081900360640190fd5b600080828154811062001f1557fe5b6000918252602082200154604080516001620ab4bf60e41b0319815290516001600160a01b039092169350839263ff54b4109260048084019382900301818387803b15801562001a8857600080fd5b60008054821062001fab576040805162461bcd60e51b8152602060048201526012602482015260008051602062004526833981519152604482015290519081900360640190fd5b600080838154811062001fba57fe5b600091825260209182902001546040805163a0cb23cd60e01b815290516001600160a01b039092169350839263a0cb23cd92600480840193829003018186803b15801562000e7f57600080fd5b6000805482106200204e576040805162461bcd60e51b8152602060048201526012602482015260008051602062004526833981519152604482015290519081900360640190fd5b60008083815481106200205d57fe5b600091825260209182902001546040805163057a92ed60e21b815290516001600160a01b03909216935083926315ea4bb492600480840193829003018186803b15801562000e7f57600080fd5b60008989898989898989893333604051620020c59062002a33565b8080602001806020018c81526020018b81526020018a815260200189815260200188815260200180602001876001600160a01b03166001600160a01b03168152602001866001600160a01b03166001600160a01b03168152602001856001600160a01b03166001600160a01b0316815260200184810384528f818151815260200191508051906020019080838360005b838110156200216f57818101518382015260200162002155565b50505050905090810190601f1680156200219d5780820380516001836020036101000a031916815260200191505b5084810383528e818151815260200191508051906020019080838360005b83811015620021d5578181015183820152602001620021bb565b50505050905090810190601f168015620022035780820380516001836020036101000a031916815260200191505b5084810382528851815288516020918201918a019080838360005b83811015620022385781810151838201526020016200221e565b50505050905090810190601f168015620022665780820380516001836020036101000a031916815260200191505b509e505050505050505050505050505050604051809103906000f08015801562002294573d6000803e3d6000fd5b50600080546001810182559080527f290decd9548b62a8d60345a988386fc84ba6bc95484008f6362f93160ef3e5630180546001600160a01b0319166001600160a01b0383161790559a9950505050505050505050565b60005490565b600080600083815481106200230257fe5b6000918252602091829020015460408051637da71c3560e11b815290516001600160a01b039092169350839263fb4e386a92600480840193829003018186803b15801562000e7f57600080fd5b600054606090821062002398576040805162461bcd60e51b8152602060048201526012602482015260008051602062004526833981519152604482015290519081900360640190fd5b6000808381548110620023a757fe5b60009182526020822001546040805163331f98fd60e01b815290516001600160a01b039092169350839263331f98fd92600480840193829003018186803b1580156200175f57600080fd5b600080600083815481106200240357fe5b600091825260209182902001546040805163d21220a760e01b815290516001600160a01b039092169350839263d21220a792600480840193829003018186803b1580156200245057600080fd5b505afa15801562002465573d6000803e3d6000fd5b505050506040513d60208110156200247c57600080fd5b50516001600160a01b031663dd62ed3e326200249886620022f1565b6040518363ffffffff1660e01b815260040180836001600160a01b03166001600160a01b03168152602001826001600160a01b03166001600160a01b031681526020019250505060206040518083038186803b15801562000e7f57600080fd5b60005481106200253e576040805162461bcd60e51b8152602060048201526012602482015260008051602062004526833981519152604482015290519081900360640190fd5b60008082815481106200254d57fe5b60009182526020822001546040805163ba0892d960e01b815290516001600160a01b039092169350839263ba0892d99260048084019382900301818387803b15801562001a8857600080fd5b600080548210620025e0576040805162461bcd60e51b8152602060048201526012602482015260008051602062004526833981519152604482015290519081900360640190fd5b6000808381548110620025ef57fe5b6000918252602091829020015460408051639068ed1760e01b815290516001600160a01b0390921693508392639068ed1792600480840193829003018186803b15801562000e7f57600080fd5b600054811062002682576040805162461bcd60e51b8152602060048201526012602482015260008051602062004526833981519152604482015290519081900360640190fd5b60008082815481106200269157fe5b600091825260208220015460408051630d62b85360e41b815290516001600160a01b039092169350839263d62b85309260048084019382900301818387803b158015620026dd57600080fd5b505af1158015620026f2573d6000803e3d6000fd5b5050604080518581526004602082015281513394506000805160206200454683398151915293509081900390910190a25050565b606060008054806020026020016040519081016040528092919081815260200182805480156200278057602002820191906000526020600020905b81546001600160a01b0316815260019091019060200180831162002761575b5050505050905090565b600080548210620027d1576040805162461bcd60e51b8152602060048201526012602482015260008051602062004526833981519152604482015290519081900360640190fd5b6000808381548110620027e057fe5b6000918252602091829020015460408051637f1c4edb60e11b815290516001600160a01b039092169350839263fe389db692600480840193829003018186803b15801562000e7f57600080fd5b600054606090821062002876576040805162461bcd60e51b8152602060048201526012602482015260008051602062004526833981519152604482015290519081900360640190fd5b60008083815481106200288557fe5b600091825260208220015460408051630f629ad360e41b815290516001600160a01b039092169350839263f629ad3092600480840193829003018186803b1580156200175f57600080fd5b60008054821062002917576040805162461bcd60e51b8152602060048201526012602482015260008051602062004526833981519152604482015290519081900360640190fd5b600082815481106200292557fe5b6000918252602090912001546001600160a01b031692915050565b600054821062002986576040805162461bcd60e51b8152602060048201526012602482015260008051602062004526833981519152604482015290519081900360640190fd5b60008083815481106200299557fe5b60009182526020822001546040805163c7297f7b60e01b8152851515600482015290516001600160a01b039092169350839263c7297f7b9260248084019382900301818387803b158015620029e957600080fd5b505af1158015620029fe573d6000803e3d6000fd5b5050604080518681526005602082015281513394506000805160206200454683398151915293509081900390910190a2505050565b611ae48062002a428339019056fe60806040526015805460ff191690553480156200001b57600080fd5b5060405162001ae438038062001ae483398181016040526101608110156200004257600080fd5b81019080805160405193929190846401000000008211156200006357600080fd5b9083019060208201858111156200007957600080fd5b82516401000000008111828201881017156200009457600080fd5b82525081516020918201929091019080838360005b83811015620000c3578181015183820152602001620000a9565b50505050905090810190601f168015620000f15780820380516001836020036101000a031916815260200191505b50604052602001805160405193929190846401000000008211156200011557600080fd5b9083019060208201858111156200012b57600080fd5b82516401000000008111828201881017156200014657600080fd5b82525081516020918201929091019080838360005b83811015620001755781810151838201526020016200015b565b50505050905090810190601f168015620001a35780820380516001836020036101000a031916815260200191505b5060408181526020830151908301516060840151608085015160a086015160c09096018051949893979296919591949193929184640100000000821115620001ea57600080fd5b9083019060208201858111156200020057600080fd5b82516401000000008111828201881017156200021b57600080fd5b82525081516020918201929091019080838360005b838110156200024a57818101518382015260200162000230565b50505050905090810190601f168015620002785780820380516001836020036101000a031916815260200191505b50604090815260208201519082015160609092015190935090915088881015620002ee576040517f08c379a000000000000000000000000000000000000000000000000000000000815260040180806020018281038252602681526020018062001abe6026913960400191505060405180910390fd5b60008054731484a6020a0f08400f6f56715016d2c80e26cdc16001600160a01b031991821617909155600180549091166001600160a01b038516179055600b8790556006805460ff19169055600e869055600f85905583516200035990600c906020870190620003e4565b50600280546001600160a01b038085166001600160a01b03199283161790925560038054928416929091169190911790558a516200039f9060059060208e0190620003e4565b50600480546001600160a01b031916301790558951620003c79060079060208d0190620003e4565b505050600995909555505050600892909255506200048992505050565b828054600181600116156101000203166002900490600052602060002090601f016020900481019282601f106200042757805160ff191683800117855562000457565b8280016001018555821562000457579182015b82811115620004575782518255916020019190600101906200043a565b506200046592915062000469565b5090565b6200048691905b8082111562000465576000815560010162000470565b90565b61162580620004996000396000f3fe6080604052600436106101d65760003560e01c806385209ee011610102578063d0e30db011610095578063fb4e386a11610064578063fb4e386a14610552578063fe24e86e14610567578063fe389db61461057c578063ff54b41014610591576101d6565b8063d0e30db01461050b578063d21220a714610520578063d62b853014610535578063f629ad301461053d576101d6565b8063ba0892d9116100d1578063ba0892d9146104ad578063bd383473146104b5578063c7297f7b146104ca578063ccd3c775146104f6576101d6565b806385209ee0146104355780639068ed171461046e578063a035b1fe14610483578063a0cb23cd14610498576101d6565b80632c93182a1161017a5780636a1bec88116101495780636a1bec88146103405780636c14f874146103485780637150d8ae1461040b57806375becd1a14610420576101d6565b80632c93182a146102f9578063331f98fd1461030e5780634ed523e9146103235780636751618014610338576101d6565b806315ea4bb4116101b657806315ea4bb4146102bd57806316d43a97146102d257806318be633f146102e75780632323f8f5146102f1576101d6565b806263fcf0146101db5780629190551461020257806308551a531461028c575b600080fd5b3480156101e757600080fd5b506101f0610599565b60408051918252519081900360200190f35b34801561020e57600080fd5b5061021761059f565b6040805160208082528351818301528351919283929083019185019080838360005b83811015610251578181015183820152602001610239565b50505050905090810190601f16801561027e5780820380516001836020036101000a031916815260200191505b509250505060405180910390f35b34801561029857600080fd5b506102a161062d565b604080516001600160a01b039092168252519081900360200190f35b3480156102c957600080fd5b506101f061063c565b3480156102de57600080fd5b506101f0610642565b6102ef610648565b005b6102ef61070d565b34801561030557600080fd5b506101f06109fd565b34801561031a57600080fd5b50610217610a03565b34801561032f57600080fd5b506102ef610a5e565b6102ef610c2d565b6102ef610dfc565b34801561035457600080fd5b506102ef6004803603604081101561036b57600080fd5b6001600160a01b03823516919081019060408101602082013564010000000081111561039657600080fd5b8201836020820111156103a857600080fd5b803590602001918460018302840111640100000000831117156103ca57600080fd5b91908080601f016020809104026020016040519081016040528093929190818152602001838380828437600092019190915250929550610e43945050505050565b34801561041757600080fd5b506102a1610edc565b34801561042c57600080fd5b50610217610eeb565b34801561044157600080fd5b5061044a610f46565b6040518082600781111561045a57fe5b60ff16815260200191505060405180910390f35b34801561047a57600080fd5b506102a1610f4f565b34801561048f57600080fd5b506101f0610f5e565b3480156104a457600080fd5b506101f0610f64565b6102ef610f6a565b3480156104c157600080fd5b506101f0610fd3565b3480156104d657600080fd5b506102ef600480360360208110156104ed57600080fd5b50351515610fd9565b34801561050257600080fd5b506101f061119c565b34801561051757600080fd5b506101f06111a2565b34801561052c57600080fd5b506102a16111a8565b6102ef6111b7565b34801561054957600080fd5b5061021761137a565b34801561055e57600080fd5b506102a16113d5565b34801561057357600080fd5b506101f06113e4565b34801561058857600080fd5b506101f06113ea565b6102ef6113f0565b60115481565b6007805460408051602060026001851615610100026000190190941693909304601f810184900484028201840190925281815292918301828280156106255780601f106105fa57610100808354040283529160200191610625565b820191906000526020600020905b81548152906001019060200180831161060857829003601f168201915b505050505081565b6002546001600160a01b031681565b600e5481565b60145481565b6002546001600160a01b031632146106a7576040805162461bcd60e51b815260206004820152601d60248201527f4f6e6c792073656c6c65722063616e207369676e20636f6e7472616374000000604482015290519081900360640190fd5b600160065460ff1660078111156106ba57fe5b146106fa576040805162461bcd60e51b815260206004820152601460248201526000805160206115d1833981519152604482015290519081900360640190fd5b6006805460ff1916600217905542601455565b600560065460ff16600781111561072057fe5b14610760576040805162461bcd60e51b815260206004820152601460248201526000805160206115d1833981519152604482015290519081900360640190fd5b600954606490605a02600054604080516370a0823160e01b8152326004820152905193909204926001600160a01b03909116916370a08231916024808301926020929190829003018186803b1580156107b857600080fd5b505afa1580156107cc573d6000803e3d6000fd5b505050506040513d60208110156107e257600080fd5b50511015610837576040805162461bcd60e51b815260206004820152601860248201527f506c6561736520746f70207570207468652057616c6c65740000000000000000604482015290519081900360640190fd5b60008054600954604080516323b872dd60e01b81523260048201523060248201526064605a909302839004604482015290516001600160a01b03909316936323b872dd93828401936020939192918390030190829087803b15801561089b57600080fd5b505af11580156108af573d6000803e3d6000fd5b505050506040513d60208110156108c557600080fd5b50506006805460ff191681179055600080546002546008546009546040805163a9059cbb60e01b81526001600160a01b03948516600482015292909103602483015251919092169263a9059cbb92604480820193602093909283900390910190829087803b15801561093657600080fd5b505af115801561094a573d6000803e3d6000fd5b505050506040513d602081101561096057600080fd5b5050600080546001546008546040805163a9059cbb60e01b81526001600160a01b039384166004820152602481019290925251919092169263a9059cbb92604480820193602093909283900390910190829087803b1580156109c157600080fd5b505af11580156109d5573d6000803e3d6000fd5b505050506040513d60208110156109eb57600080fd5b50504260148190556012556000601355565b60135481565b600d805460408051602060026001851615610100026000190190941693909304601f810184900484028201840190925281815292918301828280156106255780601f106105fa57610100808354040283529160200191610625565b600260065460ff166007811115610a7157fe5b14610ab1576040805162461bcd60e51b815260206004820152601460248201526000805160206115d1833981519152604482015290519081900360640190fd5b600054604080516370a0823160e01b815232600482015290516001600160a01b03909216916370a0823191602480820192602092909190829003018186803b158015610afc57600080fd5b505afa158015610b10573d6000803e3d6000fd5b505050506040513d6020811015610b2657600080fd5b5051600954606490041115610b6c5760405162461bcd60e51b815260040180806020018281038252603581526020018061159c6035913960400191505060405180910390fd5b60008054600954604080516323b872dd60e01b8152326004820152306024820152606492839004604482015290516001600160a01b03909316936323b872dd93828401936020939192918390030190829087803b158015610bcc57600080fd5b505af1158015610be0573d6000803e3d6000fd5b505050506040513d6020811015610bf657600080fd5b50506006805460ff191660031790556009546064900460105560006011556249d40042908101601255621275008101601355601455565b4260135410610c6d5760405162461bcd60e51b81526004018080602001828103825260338152602001806115696033913960400191505060405180910390fd5b60035b60065460ff166007811115610c8157fe5b14610cc1576040805162461bcd60e51b815260206004820152601460248201526000805160206115d1833981519152604482015290519081900360640190fd5b6006805460ff19169055600080546002546008546010546011546040805163a9059cbb60e01b81526001600160a01b0395861660048201529190920192909203602483015251919092169263a9059cbb92604480820193602093909283900390910190829087803b158015610d3557600080fd5b505af1158015610d49573d6000803e3d6000fd5b505050506040513d6020811015610d5f57600080fd5b5050600080546001546008546040805163a9059cbb60e01b81526001600160a01b039384166004820152602481019290925251919092169263a9059cbb92604480820193602093909283900390910190829087803b158015610dc057600080fd5b505af1158015610dd4573d6000803e3d6000fd5b505050506040513d6020811015610dea57600080fd5b50504260128190556000601355601455565b4260125410610e3c5760405162461bcd60e51b81526004018080602001828103825260368152602001806114f96036913960400191505060405180910390fd5b6005610c70565b600060065460ff166007811115610e5657fe5b14610e96576040805162461bcd60e51b815260206004820152601460248201526000805160206115d1833981519152604482015290519081900360640190fd5b6006805460ff19166001179055600380546001600160a01b0384166001600160a01b03199091161790558051610ed390600d90602084019061145d565b50504260145550565b6003546001600160a01b031681565b600c805460408051602060026001851615610100026000190190941693909304601f810184900484028201840190925281815292918301828280156106255780601f106105fa57610100808354040283529160200191610625565b60065460ff1681565b6001546001600160a01b031681565b60095481565b60125481565b6006805460ff19169055600080546002546010546040805163a9059cbb60e01b81526001600160a01b039384166004820152602481019290925251919092169263a9059cbb92604480820193602093909283900390910190829087803b158015610dc057600080fd5b60085481565b600460065460ff166007811115610fec57fe5b1461102c576040805162461bcd60e51b815260206004820152601460248201526000805160206115d1833981519152604482015290519081900360640190fd5b8015611053576015805460ff19908116600117909155600680549091166005179055611195565b6015805460ff19908116909155600680549091169055600080546003546008546010546011546040805163a9059cbb60e01b81526001600160a01b0395861660048201529190920192909203602483015251919092169263a9059cbb92604480820193602093909283900390910190829087803b1580156110d357600080fd5b505af11580156110e7573d6000803e3d6000fd5b505050506040513d60208110156110fd57600080fd5b5050600080546001546008546040805163a9059cbb60e01b81526001600160a01b039384166004820152602481019290925251919092169263a9059cbb92604480820193602093909283900390910190829087803b15801561115e57600080fd5b505af1158015611172573d6000803e3d6000fd5b505050506040513d602081101561118857600080fd5b5050600060128190556013555b5042601455565b600b5481565b60105481565b6000546001600160a01b031681565b600360065460ff1660078111156111ca57fe5b1461120a576040805162461bcd60e51b815260206004820152601460248201526000805160206115d1833981519152604482015290519081900360640190fd5b6009805460649102600054604080516370a0823160e01b8152326004820152905193909204926001600160a01b03909116916370a08231916024808301926020929190829003018186803b15801561126157600080fd5b505afa158015611275573d6000803e3d6000fd5b505050506040513d602081101561128b57600080fd5b505110156112ca5760405162461bcd60e51b815260040180806020018281038252603a81526020018061152f603a913960400191505060405180910390fd5b6000805460098054604080516323b872dd60e01b81523260048201523060248201526064929093028290046044840152516001600160a01b03909316936323b872dd938383019360209391929083900390910190829087803b15801561132f57600080fd5b505af1158015611343573d6000803e3d6000fd5b505050506040513d602081101561135957600080fd5b50506006805460ff1916600417905560098054606491020460115542601455565b6005805460408051602060026001851615610100026000190190941693909304601f810184900484028201840190925281815292918301828280156106255780601f106105fa57610100808354040283529160200191610625565b6004546001600160a01b031681565b600a5481565b600f5481565b600160065460ff16600781111561140357fe5b14611443576040805162461bcd60e51b815260206004820152601460248201526000805160206115d1833981519152604482015290519081900360640190fd5b6006805460ff191690554260128190556000601355601455565b828054600181600116156101000203166002900490600052602060002090601f016020900481019282601f1061149e57805160ff19168380011785556114cb565b828001600101855582156114cb579182015b828111156114cb5782518255916020019190600101906114b0565b506114d79291506114db565b5090565b6114f591905b808211156114d757600081556001016114e1565b9056fe4f6e6c7920706f737420446561646c696e65207769746864726177206166746572207472616e73616374696f6e20646561646c696e654275796572206e6565647320746f206465706f736974206265747765656e2031302520616e64203130302520746f2065786563757465204f54504f6e6c792073656c6c65722063616e207769746864726177206166746572207472616e73616374696f6e20646561646c696e6557616c6c65742042616c616e6365206973206c6573736572207468616e207265717569726564206465706f73697420616d6f756e7457726f6e6720636f6e7472616374207374617465000000000000000000000000a265627a7a723158208f3e0a8f2c6e0010341b45a00eec987321a49d99f20e3420145f6322633fa53564736f6c634300050b00325072696365206e6565647320746f206265206d6f7265207468616e204167656e742066656521696e646578206f7574206f662072616e67650000000000000000000000000000ef61bc92c100a9fcc99cfb6cba93c917763e0eaf8be97d45a2a4ebdbd58b8909a265627a7a72315820ec6a2a8345fab487c3f842a0c60eb94e01854098c8ff50b314c9ac08f9cf0a9064736f6c634300050b0032",
  "linkReferences": {},
  "deployedLinkReferences": {}
}